:020000040800F2
:10000000C82B002071070008A9050008AB050008EF
:10001000AF050008B3050008B705000800000000A0
:10002000000000000000000000000000BB05000808
:10003000BD05000800000000D581000899220008D5
:100040008B0700088B0700088B0700088B07000848
:100050008B0700088B0700088B0700088B07000838
:100060008B0700088B0700088B0700088B07000828
:100070008B0700088B0700088B0700088B07000818
:100080008B0700088B0700088B07000800000000A2
:100090000000000000000000000000008B070008C6
:1000A0008B0700088B0700088B0700088B070008E8
:1000B0008B0700088B0700088B0700088B070008D8
:1000C0008B0700088B0700088B0700088B070008C8
:1000D0008B0700088B0700087B2400080000000045
:1000E0008B0700088B0700088B0700080000000042
:1000F0000000000000000000000000008B07000866
:10010000000000008B0700088B0700088B07000821
:1001100000000000000000000000000000000000DF
:100120008B0700088B0700088B0700088B07000867
:100130008B07000800000000000000000000000025
:100140000000000000000000000000008B07000815
:100150008B0700088B0700088B0700088B07000837
:100160008B0700088B07000800000000000000005B
:10017000000000000000000000000000000000007F
:10018000000000008B0700080000000000000000D5
:100190008B0700088B07000800F002F800F048F811
:1001A0000AA090E8000C82448344AAF10107DA45D2
:1001B00001D100F03DF8AFF2090EBAE80F0013F0DC
:1001C000010F18BFFB1A43F001031847F4AF0000FA
:1001D00014B00000103A24BF78C878C1FAD852078A
:1001E00024BF30C830C144BF04680C6070470000B1
:1001F0000023002400250026103A28BF78C1FBD830
:10020000520728BF30C148BF0B607047642908F00F
:100210008781782908F0C081002070471FB50AF057
:1002200062F89DE8030008F0D3FA1FBD10B510BDB9
:1002300008F0A6FC1146FFF7F1FF00F020F908F0E6
:10024000C4FC03B4FFF7F2FF03BC02F0ABF80000FC
:1002500013E0BB48B0F90000BA494863BA48B0F9A6
:1002600000008863B948B0F90000C863B848B0F925
:10027000000008641E2002F06BF8EAE72DED048B05
:100280006CE0DFEDB40AB44890ED000AB3480068B2
:1002900005F0ACFEB0EE408ADFEDAE0AB04890ED5E
:1002A000000AB048006805F0A1FEF0EE408ADFEDDC
:1002B000A90AAD4890ED000AAC48006805F096FE2A
:1002C000B0EE409AAA4890ED000AB8EEC00A30EEAF
:1002D000480A30EE680A30EE490ABDEEC00A10EE58
:1002E000100A00B296490880A14890ED000AB8EEC5
:1002F000C00A30EE480A30EE280A30EE090ABDEE98
:10030000C00A10EE100A00B28F490880984890ED9C
:10031000000AB8EEC00A30EE080A30EE280A30EEC5
:10032000490ABDEEC00A10EE100A00B287490880E3
:100330008F4890ED000AB8EEC00A30EE080A30EEA1
:10034000680A30EE090ABDEEC00A10EE100A00B2CB
:100350007F490880142001F0FBFF00BF91E786B0C1
:1003600069E07F4A80497C4804F0F3FC00285FD1B3
:10037000804A8149814802F000FC814A81498248D3
:1003800002F0D3FB744890ED000A05F063FD72485B
:1003900080ED000A744890ED000A05F05BFD72489C
:1003A00080ED000A6E4890ED000A05F053FD6C48A0
:1003B00080ED000A90ED000AF2EE040A20EE200A19
:1003C000BDEEC00A10EE100A00B2634991ED000ABA
:1003D000DFED6E0A20EE200ABDEEC00A10EE101A04
:1003E000494209B2604A92ED000ADFED680A20EE48
:1003F000200ABDEEC00A10EE102A524212B2604B23
:10040000B3F90030CDE90132CDE903105D48B0F910
:10041000000000905C48B0F900305648B0F9002068
:100420005548B0F900105548B0F9000005F0AFFC90
:100430000A2001F08DFF94E770B50446002500BF47
:1004400007F0A0FE05460823514A0021AFF2F10053
:1004500007F078FA06234F4A0021AFF2DF1007F0C9
:1004600071FA04234C4A0021AFF21B2007F06AFA0C
:100470000A2007F0E7FC284607F088FE70BD10B59B
:100480002DED048B632001F013FF02F0C2F84FF44E
:10049000A06000F08DF9414801F094FF02F097FA56
:1004A00002E00A2001F054FF04F003FC0028F8D118
:1004B000B7EE009AB6EE008ADFED398A382007F0F1
:1004C000A8FF26490860382007F0A3FF25490860E7
:1004D000382007F09EFF25490860F0EE681AB0EE5C
:1004E000481AF0EE490A9FED1B0A1C48006805F007
:1004F0004CFDF0EE681AB0EE481AF0EE490A9FED96
:10050000150A1848006805F040FDF0EE681AB0EED4
:10051000481AF0EE490A9FED0F0A1448006805F0EA
:1005200034FD05F05CFF0A231E4A0021AFF2F700FC
:1005300007F008FA06F078F80020BDEC048B10BD37
:1005400018000020000001401A0000201C000020BC
:100550001E000020000000000C00002024000020ED
:100560001400002028000020100000202C00002093
:1005700020000020040000200200002000000020D5
:100580000A00002008000020060000200000C842E9
:10059000E4190020E4110020E409002020A1070054
:1005A0000AD7233CE4010020704700BFFEE700BFEC
:1005B000FEE700BFFEE700BFFEE7704770470000A0
:1005C0006048006840F080505E4908605E480068FE
:1005D00040F440405C4908605A483838006859493E
:1005E000383908600846006808600846006840F42A
:1005F000805008605548091F0860081F006840F0D7
:100600008070091F086000BF4E484038006800F045
:1006100000700028F8D040F202704D490860494847
:100620003838006820F00300464938390860084629
:10063000006840F00200086000BF42483838006897
:1006400000F00C000828F8D1704710B54148006848
:1006500040F470003F4908603A484038006840F074
:1006600001003849403908600020364938390860AF
:1006700034484038006838490840324940390860F9
:100680003648091D0860081F006820F48020091FF3
:10069000086000202B4934390860FFF791FF4FF0C4
:1006A00000602C498039086010BD70B50020002121
:1006B000022200230224234D383D2D6805F00C0052
:1006C00020B1042806D0082829D107E0244D254E62
:1006D000356028E0244D234E356024E0194D3C3D23
:1006E0002D68C5F38053174D3C3D2D6805F03F0440
:1006F0004BB91B4DB5FBF4F5124E3C3E3668C6F3C4
:10070000881605FB06F10F4D3C3D2D68C5F30145EC
:100710006D1C6A00B1FBF2F5124E356003E0104D1E
:10072000104E356000BF00BF064D383D2D68C5F343
:1007300003150E4E705D0B4D2D68C540094E35609A
:1007400070BD000040380240007000401064010796
:10075000003C024088ED00E0FFFFF6FE1030002470
:100760000024F4003000002000127A003400002041
:100770000948804709480047FEE7FEE7FEE7FEE735
:10078000FEE7FEE7FEE7FEE7FEE7FEE70448054971
:10079000054A064B704700004B0600089901000807
:1007A000C8250020C82B0020C8270020C82700200B
:1007B00032490143324A1160704770B5002100236D
:1007C0000F22C4781CB32E4C246804F4E064C4F5F2
:1007D000E064C4F30721C1F10404E3B20A414478A0
:1007E0009C40E1B28478144021430C07210E254C33
:1007F00005786155047804F01F050124AC400578A4
:100800006D11AD0005F1E025C5F8004109E004785F
:1008100004F01F050124AC401B4D0678761145F805
:10082000264070BD194A0A400243154B1B1F1A602F
:10083000704739B1124A121D12680243104B1B1D3A
:100840001A6006E00E4A121D126882430C4B1B1DF3
:100850001A607047042808D14FF0E021096941F07F
:1008600004014FF0E022116107E04FF0E021096937
:1008700021F004014FF0E022116170470000FA05F9
:100880000CED00E000E400E080E100E080FFFF1FED
:1008900010B504469848844208D10121084600F06A
:1008A00088FB0021012000F084FB76E0934884421D
:1008B00008D10121022000F07CFB0021022000F081
:1008C00078FB6AE08E48844208D10121042000F0C0
:1008D00070FB0021042000F06CFB5EE0894884423C
:1008E00008D10121082000F064FB0021082000F05D
:1008F00060FB52E08448844208D10121102000F0BE
:1009000058FB0021102000F054FB46E07F48844251
:1009100008D10121202000F04CFB0021202000F014
:1009200048FB3AE07A48844208D10121402000F097
:1009300040FB0021402000F03CFB2EE07548844243
:1009400008D10121802000F034FB0021802000F03C
:1009500030FB22E07048844208D10121801500F06C
:1009600028FB0021A01500F024FB16E06B48844210
:1009700008D10121401500F01CFB0021601500F09A
:1009800018FB0AE06648844207D10121001500F0F7
:1009900010FB0021201500F00CFB10BDF0B50A463D
:1009A00000210023002400BF3DE0012505FA01F3EA
:1009B000156805EA03049C4234D105684F000326FC
:1009C000BE40B543056015794E00B5400668354315
:1009D00005601579012D02D01579022D16D1856893
:1009E0004F000326BE40B543856055794E00B540A3
:1009F000866835438560456801268E40B54345606D
:100A0000456896798E40B6B235434560C5684F005B
:100A10000326BE40B543C560D5794E00B540C668D3
:100A20003543C560491C1029BFD3F0BD4FF6FF7197
:100A300001600021017141718171C171704708B578
:100A40004FF480320092009A0A430092009AC261E9
:100A5000C161009AC261C2690092C269009208BD78
:100A60000246002013690B400BB1012000E000207A
:100A700070470146086980B27047024600205369FA
:100A80000B400BB1012000E000207047014648698F
:100A900080B2704701837047418370470AB1018378
:100AA00000E0418370474161704742694A404261BA
:100AB0007047F0B5002300244D07ED0E02FA05F350
:100AC000CE1000F1200555F826504E07F70E0F26E0
:100AD000BE40B543CF1000F1200646F82750CE1097
:100AE00000F1200555F8265045EA0304CE1000F128
:100AF000200545F82640F0BD0000024000040240F9
:100B000000080240000C02400010024000140240A5
:100B100000180240001C0240002002400024024055
:100B200000280240FA48006840F00100F8490860D7
:100B30000020F74908310860F5480068F549084089
:100B4000F3490860F448091D0860F448F04984310D
:100B50000860F1481038091D0860ED48006820F46D
:100B60008020EB4908600020E9490C310860E84921
:100B70008C31086070470021E54A921C11701146C3
:100B80000870704710B501460022002300204A116A
:100B9000012A02D1DE4C236808E0022A03D1DC4C92
:100BA0007034236802E0DA4C7434236801F01F02C9
:100BB000012494401C400CB1012000E0002010BD35
:100BC00038B5002000900024002500BF3120FFF739
:100BD000D9FF05460098401C00900098B0F5A04F42
:100BE00001D0002DF2D03120FFF7CCFF08B1012455
:100BF00000E00024204638BD01460020C44A1068A9
:100C000020F0F80040EAC10010607047C449086055
:100C100070470021BE4A703211701170012802D055
:100C200004280AD104E00121B94A7032117005E0AC
:100C30000521B74A7032117000E000BF00BF704755
:100C4000B8490860704770B5049C41EA82150126D6
:100C5000C6EB530645EA0645054345EA0465AC4E36
:100C6000361D356070BDAE490866704710B583010A
:100C700043EA01731343A64C8434236010BDA84992
:100C80008866704710B5830143EA016343EA027343
:100C90009F4C8834236010BDA14908677047A04964
:100CA000C864704702460020994B0833186820F04A
:100CB000EC6042EA01031843954B08331860704713
:100CC00002460020924B0833186820F0784042EA30
:100CD000010318438E4B083318607047014600200B
:100CE0008B4A0832106820F00300084310607047F8
:100CF00087480830006800F00C007047014600206B
:100D0000834A0832106820F0F000084310607047F2
:100D1000014600207E4A0832106820F4E050084363
:100D20001060704701460020794A0832106820F4AC
:100D3000604040EAC10010607047F0B50021002219
:100D40000024022500260223714F08373F6807F070
:100D50000C0121B1042905D0082937D105E0724FD3
:100D6000076036E0714F076033E0694F3F1D3F6811
:100D7000C7F38056664F3F1D3F6807F03F036EB1D3
:100D80006A4FB7FBF3F7DFF888C10CF1040CDCF80D
:100D900000C0CCF3881C07FB0CF40CE0624FB7FBDF
:100DA000F3F7DFF86CC10CF1040CDCF800C0CCF3F5
:100DB000881C07FB0CF4564F3F1D3F68C7F30147E3
:100DC0007F1C7D00B4FBF5F7076002E0564F07601B
:100DD00000BF00BF4E4F08373F6807F0F001090918
:100DE000534F7A5C0768D7404760494F08373F68E0
:100DF00007F4E051890A4E4F7A5C4768D740876014
:100E0000434F08373F6807F46041490B484F7A5C0D
:100E10004768D740C760F0BD002100F44072B2F5CA
:100E2000407F0AD13A4A0832116821F4F811414A48
:100E300002401143364A08321160354A7032126856
:100E4000C0F30B031A43324B70331A6070473549B5
:100E50004439086070473349403908607047364963
:100E60000860704701460020294A8C32106820F043
:100E70001F004A1E1043264A8C32106070470146FC
:100E80000020234A8C32106820F4F8504A1E40EAB1
:100E900002201F4A8C3210607047014600201C4A15
:100EA0008C32106820F440100843106070470146EF
:100EB0000020174A8C32106820F44000084310606C
:100EC000704701460020124A8C32106820F44030EE
:100ED00008431060704719490860704739B10C4ADF
:100EE0003032126802430A4B30331A6006E0084A77
:100EF000303212688243064B30331A607047F9B1C2
:100F0000034A343212680243014B34331A601CE046
:100F100000380240FFFFF6EA1030002400300020C5
:100F200000004742800E47420024F40000127A007D
:100F300044000020FFFCFF0F5C014742E0114742E4
:100F40008F4A126882438E4B1A60704739B18C4ABF
:100F5000121D126802438A4B1B1D1A6006E0884A64
:100F6000121D12688243864B1B1D1A60704739B1EF
:100F7000834A0C3212680243814B0C331A6006E03C
:100F80007F4A0C32126882437D4B0C331A607047E3
:100F900039B17B4A103212680243794B10331A6020
:100FA00006E0774A103212688243754B10331A609C
:100FB000704739B1724A243A12680243704B243B9D
:100FC0001A6006E06E4A243A126882436C4B243B56
:100FD0001A60704739B16A4A203A12680243684B76
:100FE000203B1A6006E0664A203A12688243644B4E
:100FF000203B1A60704739B1614A1C3A12680243BB
:101000005F4B1C3B1A6006E05D4A1C3A1268824343
:101010005B4B1C3B1A60704739B1594A143A12684D
:101020000243574B143B1A6006E0554A143A1268C3
:101030008243534B143B1A60704739B1504A103AFF
:10104000126802434E4B103B1A6006E04C4A103ABD
:10105000126882434A4B103B1A60704739B1484AC4
:101060001C3212680243464B1C331A6006E0444AA5
:101070001C3212688243424B1C331A60704739B1EC
:101080003F4A2032126802433D4B20331A6006E08B
:101090003B4A203212688243394B20331A60704732
:1010A00039B1374A243212680243354B24331A606F
:1010B00006E0334A243212688243314B24331A60EB
:1010C000704739B12E4A2C32126802432C4B2C3314
:1010D0001A6006E02A4A2C3212688243284B2C33CD
:1010E0001A60704739B1264A303212680243244BE5
:1010F00030331A6006E0224A303212688243204BB5
:1011000030331A607047012808D11D493C31096805
:1011100041F008011A4A3C32116007E018493C319D
:10112000096821F00801164A3C321160704739B154
:10113000134A273A12780243114B273B1A7006E0F4
:101140000F4A273A127882430D4B273B1A7070479B
:101150000B484030006840F0807009494031086019
:10116000704701460020064A283A12680A400AB130
:10117000012000E0002070470149263908707047BF
:101180003438024010B50446FA48844208D101219F
:101190001020FFF752FF00211020FFF74EFF57E00D
:1011A000F548844209D101214804FFF735FF0021A9
:1011B0004FF40030FFF730FF4AE0F048844209D195
:1011C00001218804FFF728FF00214FF48020FFF75A
:1011D00023FF3DE0EA48844209D10121C804FFF71A
:1011E0001BFF00214FF40020FFF716FF30E0E54819
:1011F000844209D101210805FFF70EFF00214FF4B9
:101200008010FFF709FF23E0DF48844208D1012165
:101210002020FFF712FF00212020FFF70EFF17E02C
:10122000DA48844209D101218807FFF7F5FE002141
:101230004FF08040FFF7F0FE0AE0D548844207D126
:1012400001214005FFF7E8FE00216005FFF7E4FEFD
:1012500010BD2DE9FF4705460E460024A14600BFFC
:10126000A046B08900B100BF2C8A24F44054F08815
:1012700004432C82AC8941F20C608443B0883189EC
:101280000843718908430443AC81AC8A24F4407458
:10129000B0890443AC826846FFF74FFDB5488542EC
:1012A00002D0B948854202D1DDF80C9001E0DDF8AA
:1012B0000890A88900F4004040B109EBC90000EB98
:1012C000091031684900B0FBF1F707E009EBC900EC
:1012D00000EB091031688900B0FBF1F76420B7FB1F
:1012E000F0F004012009642101FB1078A88900F4C2
:1012F000004040B1322000EBC800B0FBF1F000F03C
:101300000700044308E0322000EB08106421B0FB22
:10131000F1F000F00F0004432C81BDE8FF874FF48B
:101320001651016000218180C18001810C21418121
:1013300000218181704710B502460020108A20F4F8
:1013400070600B884C8823438C882343CC882343CC
:101350001843108210BD0021018041808180C1802E
:10136000704721B1828942F40052828104E082896F
:101370004DF6FF731A4082817047028B02F47F4260
:101380000283028B0A430283704721B1828942F4AF
:101390000042828103E08289C2F30E02828170479B
:1013A00021B1828A42F40062828204E0828A4FF292
:1013B000FF731A4082827047C1F30802828070472F
:1013C00001468888C0F308007047028A4FF6F07320
:1013D0001A400282028A0A430282704721B182893E
:1013E00042F00202828104E082894FF6FD731A40C6
:1013F0008281704782894FF2FF731A40828182890D
:101400000A4382817047028A4FF6DF731A400282D4
:10141000028A0A430282704721B1028A42F4804262
:10142000028204E0028A4BF6FF731A400282704780
:10143000818941F001018181704721B1828A42F0A6
:101440000802828204E0828A4FF6F7731A40828291
:101450007047028BD2B20283028B42EA01220283DE
:10146000704721B1828A42F02002828204E0828A9F
:101470004FF6DF731A408282704721B1828A42F0B0
:101480001002828204E0828A4FF6EF731A40828251
:101490007047828A4FF6FB731A408282828A0A431F
:1014A0008282704721B1828A42F00202828204E085
:1014B000828A4FF6FD731A40828270471AB1838A7E
:1014C0000B43838202E0838A8B4383827047F0B5AB
:1014D0000346002400260025002040F66A17B94282
:1014E00000D100BF1846C1F3421401F01F060127C6
:1014F00007FA06F5012C01D10C3004E0022C01D1D1
:10150000103000E014301AB107682F43076002E082
:101510000768AF430760F0BD02460020B1F5007FC9
:1015200000D100BF13880B400BB1012000E0002068
:10153000704701F40072B2F5007F00D100BFCA43CA
:101540000280704770B50246002400230025002069
:1015500040F66A16B14200D100BFC1F3421501F056
:101560001F03012606FA03F3012D13D19689334098
:1015700017E0000000100140004400400048004017
:10158000004C004000500040001401400078004032
:10159000007C0040022D02D1168A334001E0968A79
:1015A00033400C12012606FA04F41688344013B1B5
:1015B0000CB1012000E0002070BD10B50022002316
:1015C00040F66A14A14200D100BF0A1201249440DF
:1015D000A3B2DC43048010BD10B50446FE4884422B
:1015E00008D101210846FFF728FD00210120FFF75F
:1015F00024FD9DE0B4F1804F08D101210846FFF79A
:101600000BFD00210120FFF707FD91E0F348844224
:1016100008D101210220FFF7FFFC00210220FFF783
:10162000FBFC85E0EE48844208D101210420FFF74D
:10163000F3FC00210420FFF7EFFC79E0E948844245
:1016400008D101210820FFF7E7FC00210820FFF75F
:10165000E3FC6DE0E448844208D101211020FFF74B
:10166000DBFC00211020FFF7D7FC61E0DF4884425B
:1016700008D101212020FFF7CFFC00212020FFF717
:10168000CBFC55E0DA48844208D101210220FFF763
:10169000D4FC00210220FFF7D0FC49E0D548844269
:1016A00009D101210804FFF7C8FC00214FF4803064
:1016B000FFF7C3FC3CE0D048844209D10121480433
:1016C000FFF7BBFC00214FF40030FFF7B6FC2FE022
:1016D000CA48844209D101218804FFF7AEFC0021E9
:1016E0004FF48020FFF7A9FC22E0C548844208D1CE
:1016F00001214020FFF790FC00214020FFF78CFCE7
:1017000016E0C048844208D101218020FFF784FC04
:1017100000218020FFF780FC0AE0BB48844207D10B
:1017200001218015FFF778FC0021A015FFF774FC5C
:1017300010BD00220288A84B98420ED0AC4B9842B4
:101740000BD0B0F1804F08D0A44B984205D0A44BE9
:10175000984202D0A34B984204D14FF68F731A409F
:101760004B881A43A04B984207D0A04B984204D014
:101770004FF6FF431A400B891A4302804B68C3623D
:101780000B880385944B984202D0994B984201D123
:101790008B7A03860123838270474FF0FF314160CB
:1017A0000021018001814180817270470185828220
:1017B00070470A46002101884FF68F731940114384
:1017C0000180704741627047C16270470146486AB4
:1017D00070470146088D704721B1028842F002022D
:1017E000028004E002884FF6FD731A4002807047C1
:1017F00021B1028842F00402028004E002884FF620
:10180000FB731A400280704721B1028842F08002C7
:10181000028004E002884FF67F731A40028070470E
:1018200002884FF6F7731A40028002880A4302804A
:10183000704702884FF6FF431A40028002880A432D
:101840000280704721B1028842F00102028004E068
:1018500002884FF6FE731A400280704770B500246C
:1018600000220023058C4FF6FE7635400584028C5D
:101870008388048B4FF68F752C40B51E2C400D8845
:101880002C43751E2A408D892A434D882A43524D88
:10189000A84202D0564DA84213D14FF6F7752A4000
:1018A000CD892A434FF6FB752A408D882A434FF68F
:1018B000FF652B404FF6FF552B400D8A2B434D8A79
:1018C0002B43838004838D684563028470BD70B5AB
:1018D000002400220023058C4FF6EF763540058466
:1018E000028C8388048B48F6FF752C404FF6FF4529
:1018F0002C400D884FF6FF7606EA05252C434FF65F
:10190000DF752A408D8906EA05152A434D8806EAC7
:1019100005152A43304DA84202D0354DA8421DD1AD
:101920004FF67F752A40CD894FF6FF7606EA0515FA
:101930002A434FF6BF752A408D8806EA05152A43CB
:101940004FF6FF352B404FF2FF752B400D8A06EA0C
:1019500085052B434D8A06EA85052B438380048346
:101960008D688563028470BD70B500240022002359
:10197000058C4FF6FF6635400584028C8388848B86
:101980004FF68F752C404FF6FC752C400D882C437C
:101990004FF6FF552A408D894FF6FF7606EA05255A
:1019A0002A434D8806EA05252A430B4DA84202D05A
:1019B0000F4DA84238D14FF2FF752A40CD894FF61E
:1019C000FF7606EA05252A434FF6FF352A408D8823
:1019D00006EA05252A4319E0000001400004004002
:1019E00000080040000C00400010004000140040BF
:1019F0000004014000400140004401400048014013
:101A000000180040001C0040002000404EF6FF750A
:101A10002B404DF6FF752B400D8A06EA05152B432A
:101A20004D8A06EA05152B43838084838D68C56340
:101A3000028470BD70B5002200230024058C4EF690
:101A4000FF7635400584038C8488828B48F6FF75C9
:101A50002A404FF6FF452A400D884FF6FF7606EAEA
:101A600005252A434DF6FF752B408D8906EA05357D
:101A70002B434D8806EA05352B43FE4DA84202D084
:101A8000FD4DA84208D14BF6FF752C400D8A4FF64C
:101A9000FF7606EA85152C43848082838D68056471
:101AA000038470BD0021018041808180816081813B
:101AB000C18101824182704770B503460020002435
:101AC0001846183001258D40ACB21D8CA5431D84ED
:101AD00009B108290AD100EB610005684FF68F763D
:101AE000354005600568154305600FE00D1FC5F31F
:101AF0004E052844056848F6FF76354005600568C0
:101B00004FF6FF7606EA02263543056070BD416355
:101B1000704781637047C1637047016470470A462C
:101B20000021018B4FF68F731940114301837047D9
:101B30000A460021018B48F6FF7319404FF6FF73E8
:101B400003EA02231943018370470A460021818B6F
:101B50004FF68F7319401143818370470A46002165
:101B6000818B48F6FF7319404FF6FF7303EA022397
:101B70001943818370470A460021018B4FF6F773A2
:101B800019401143018370470A460021018B4FF22F
:101B9000FF7319404FF6FF7303EA022319430183D1
:101BA00070470A460021818B4FF6F77319401143A5
:101BB000818370470A460021818B4FF2FF731940E1
:101BC0004FF6FF7303EA02231943818370470A46E5
:101BD0000021018B4FF6FB731940114301837047BD
:101BE0000A460021018B4FF6FF3319404FF6FF7371
:101BF00003EA02231943018370470A460021818BBF
:101C00004FF6FB7319401143818370470A46002148
:101C1000818B4FF6FF3319404FF6FF7303EA02231F
:101C20001943818370470A460021018B4FF67F7369
:101C300019401143018370470A460021018BC1F30B
:101C40000E014FF6FF7303EA022319430183704725
:101C50000A460021818B4FF67F731940114381831F
:101C600070470A460021818BC1F30E014FF6FF73C6
:101C700003EA02231943818370470A460021018C3D
:101C80004FF6FD7319401143018470470A46002145
:101C9000018C4FF6F77319401143018470470A46CF
:101CA0000021018C4FF6DF7319404FF6FF7303EAF2
:101CB00002131943018470470A460021018C4FF634
:101CC0007F7319404FF6FF7303EA0213194301842F
:101CD00070470A460021018C4FF6FF5319404FF61A
:101CE000FF7303EA02231943018470470A46002167
:101CF000018C4FF2FF7319404FF6FF7303EA022382
:101D00001943018470470A460021018C4DF6FF7388
:101D100019404FF6FF7303EA0233194301847047F9
:101D200030B5002301248C40A3B2048C9C4304846E
:101D3000048C02FA01F5ADB22C43048430BD30B5F9
:101D4000002304248C40A3B2048C9C430484048CA0
:101D500002FA01F5ADB22C43048430BD828B4FF200
:101D6000FF331A408283828B4FF6FF7303EA01230D
:101D70001A4382837047F0B50C46154600210022B5
:101D80000026078C4EF6FF7C07EA0C070784818B40
:101D9000028C4FF6FF7707EA043640F6FF473940DA
:101DA0004FF6FF7707EA052739434FF6FF7707EA33
:101DB0000337394345F6FF773A4046F480573A43B4
:101DC00081830284F0BD828B4FF6F3731A408283C5
:101DD000828B0A4382837047F0B50C46154600217A
:101DE00000220026078C4FF6FF6C07EA0C070784D9
:101DF000818B028C4FF6FF7707EA04264FF60C77AB
:101E000039404FF6FF7707EA03172F4339434FF264
:101E1000FF573A4046F480773A4381830284F0BD0D
:101E2000028B4FF2FF331A400283028B4FF6FF738F
:101E300003EA01231A4302837047F0B50C461546A6
:101E4000002100220026078C4FF6EF7C07EA0C07E2
:101E50000784018B028C4FF6FF7707EA041640F6E1
:101E6000FF4739404FF6FF7707EA033739434FF60C
:101E7000FF7703E0000001400004014007EA052766
:101E800039434FF65F773A4046F010073A430183F3
:101E90000284F0BD028B4FF6F3731A400283028B6B
:101EA0000A4302837047F0B50C4615460021002214
:101EB000068C4FF6FE773E400684018B028C4FF66F
:101EC0000C7631407E1C06EA03162E4331434FF652
:101ED000F576324044F00106324301830284F0BDBE
:101EE00070B505460C46208850B92389A2886188C0
:101EF0002846FFF7D8FFE1882846FFF7CBFF25E00B
:101F0000208804280AD12389A28861882846FFF7FF
:101F100094FFE1882846FFF783FF17E02088082810
:101F20000AD12389A28861882846FFF755FFE188F6
:101F30002846FFF748FF09E02389A28861882846E0
:101F4000FFF719FFE1882846FFF708FF70BD002161
:101F500001804180012181800021C1800181704781
:101F60002DE9F04105460C4600260127608808B996
:101F7000022600E00026A088012801D1022700E007
:101F800001272088A0B92389A28861882846FFF705
:101F90008AFFE1882846FFF77DFF23893A463146CC
:101FA0002846FFF74AFFE1882846FFF739FF13E08C
:101FB0002389A28861882846FFF73FFFE1882846E9
:101FC000FFF72EFF23893A4631462846FFF76BFF7D
:101FD000E1882846FFF75EFFBDE8F0810146486BC7
:101FE00070470146886B70470146C86B70470146D1
:101FF000086C70470A884B881A438B881A43CB8831
:102000001A430B891A434B891A438B891A43A0F848
:10201000442070470021018041808180C18001817E
:1020200041818181704731B1B0F8442042F40042CF
:10203000A0F8442005E0B0F84420C2F30E02A0F856
:102040004420704721B1828842F00402828004E07B
:1020500082884FF6FB731A408280704721B18288D4
:1020600042F00102828004E082884FF6FE731A403B
:10207000828070471AB183890B43838102E0838990
:102080008B43838170478182704702460020138A08
:102090000B400BB1012000E000207047CA430282D0
:1020A000704730B50246002000230024158A05EA57
:1020B0000103958905EA010413B10CB1012000E088
:1020C000002030BDCA430282704741EA0203A0F8F3
:1020D000483070471AB183890B43838102E08389BA
:1020E0008B438381704721B1828842F0080282804D
:1020F00004E082884FF6F7731A40828070470189A6
:102100004FF6F8721140018170470A46002101899B
:102110004FF68F73194011430181704730B5044663
:102120000D4629462046FFF7F0FF208940F00700C2
:10213000208130BD2DE9F04104460D4616461F466C
:10214000602D06D13B46012231462046FFF775FE41
:1021500005E03B46012231462046FFF7A4FE294612
:102160002046FFF7D2FF208940F007002081BDE81C
:10217000F08130B50C4600210189C9B24FF6FF75D8
:1021800005EA0325154325432943018130BD2DE987
:10219000F04105460E4617469846002443463A4607
:1021A00031462846FFF7E5FF2C894FF6F8700440CA
:1021B00044F007044FF68F70044044F070042C8103
:1021C000BDE8F081F0B504460D4616461F463B4675
:1021D000324629462046FFF7CCFF208940F4804054
:1021E0002081F0BD82884FF68F731A4082808288EA
:1021F0000A438280704702894FF6F8731A400281C1
:1022000002890A430281704702894FF67F731A40A0
:10221000028102890A4302817047F0B50C461546D7
:102220001E460021002200230189028B038C4FF6F9
:10223000F877394021434FF6FC473A4040F2011706
:102240003A434FF6DD773B404FF6FF7707EA061734
:102250002F433B43018102830384F0BD21B1828877
:1022600042F08002828004E082884FF67F731A4039
:1022700082807047A0F850107047000010B504F03D
:1022800017F910BD10B504F058F910BD10B504468B
:10229000204605F09FFE10BD10B53E48007801288D
:1022A00005D104F0B2F804F0F6F904F0C9F810BD55
:1022B00070B504466FF00400FEF7CCFAE11704EBAA
:1022C0005171C1F3C701344A1170E11704EB517128
:1022D000CD1041F2883045430520304908804FF049
:1022E000E020006940F002004FF0E021086108465C
:1022F0004561006940F00100086170BD2DE9F047BB
:10230000074600264FF0E020D0F8149022480078CD
:1023100007FB00F8FFF7B2FF4FF0E020856911E0FE
:102320004FF0E0208469AC420CD0AC4202D2281BB2
:10233000064403E0A9EB040028440644254646452C
:1023400000D300E0ECE700BFFFF79CFFBDE8F0879B
:1023500070B504460F480078A0B11148007888B9DC
:102360000E480088844206DB0C48008894FBF0F598
:102370002846FFF78BFF0948008894FBF0F100FB2B
:10238000114084B24FF47A7104FB01F0FFF7B6FFFD
:1023900070BD0000C6000020540000205600002040
:1023A000B900002000BF704700BF524A128802F0F7
:1023B0004002002AF9D0C2B24E4B1B1D1A80704752
:1023C00000BF704710B588B0044601210846FEF7EB
:1023D00085FD01214804FEF7CAFD07220221464877
:1023E000FEF767FB072203214348FEF762FB0C2040
:1023F000069002208DF81C008DF81D0000208DF83D
:102400001E0001208DF81F0006A93B48FEF7C6FA02
:1024100002940020ADF80C00ADF80E00ADF81000ED
:10242000ADF814000C20ADF8120002A93148FEF7F7
:1024300010FF012240F225512E48FFF748F80121F4
:102440002C48FEF78EFF40212A48FFF772F8012240
:1024500040F225512748FFF73AF826208DF804006E
:1024600003208DF805008DF8060001208DF8070087
:1024700001A8FEF7A2F908B010BD10B540F2255131
:102480001C48FFF75FF810B31A48FEF799FFC4B273
:102490001A48008800F40040C8B91848008800F4C1
:1024A000804060B10A2C03D000201449088020E04D
:1024B0001248008840F400401049088019E00D2CB3
:1024C00006D10E48008840F480400C49088010E096
:1024D0000A480088C0F30D0009490C5407480088D9
:1024E000401C0649088008460088C72801DD0020F6
:1024F000088010BD00440040000002405C00002045
:10250000E819002030B58BB004460D46012108467D
:10251000FEF73EFD01210846FEF7E0FC01220821FE
:102520004E48FEF7C6FA012209214C48FEF7C1FACF
:1025300001220A214948FEF7BCFA01220B21474833
:10254000FEF7B7FA4FF47060099002208DF828006A
:102550008DF8290000208DF82A0001208DF82B002D
:1025600009A93E48FEF71AFAA8B2ADF818000020F3
:10257000ADF81A000794ADF820008DF8220006A9E6
:102580003748FFF7D6F86020ADF804000120ADF819
:1025900006000420ADF8080040F2DC500390002053
:1025A000ADF810000820ADF812004001ADF814009D
:1025B0000020ADF8160001A92948FFF74FF901A93D
:1025C0002748FFF784F901A92548FFF7CDF901A9AC
:1025D0002348FFF72FFA08212148FFF7CCFA0821FA
:1025E0001F48FFF7D1FA08211D48FFF7DAFA082142
:1025F0001B48FFF7DFFA01211948FFF705F9012110
:102600001748FFF71FF901211548FFF70CFD0BB024
:1026100030BD10B5632144F62060FFF773FF4FF41F
:10262000FA600F4948638863C863086440F6B830AD
:10263000FFF78EFE4FF47A70094948638863C863D8
:10264000086440F6B830FFF783FE40F24C4004497E
:1026500048638863C863086410BD0000000002403E
:10266000000001401CB501210220FEF737FC30209C
:10267000009001208DF8040000208DF80600032052
:102680008DF8050001208DF8070069468848FEF79F
:1026900085F90120874908608749C1F894021CBD6B
:1026A00010B58348006820F44060814908600846FE
:1026B000006840F48060086001207E49091D0860C0
:1026C0007D49C1F890020420FFF718FE00207949E7
:1026D000091D08600420FFF711FE00207649C1F8AB
:1026E000900210BD10B57248006820F44060704937
:1026F00008600846006840F48060086000206D496A
:1027000008606D49C1F894020420FFF7F7FD01202D
:10271000684908606849C1F894020420FFF7EEFD9B
:1027200010BD10B500246248006820F44060604984
:10273000086008460068086001205E49091D0860BD
:10274000FFF7DCFD01205C49C1F89002FFF7D6FDE0
:1027500007E0601CC4B2FA2C03DDFFF7C3FF0120C1
:1027600010BD54487C3800680028F2D151490860F7
:1027700000BFF5E710B500204E4908604C480068DE
:1027800020F440604A4908600846006840F48060D0
:10279000086000204849C1F894020220FFF7AEFD0E
:1027A0000120444908600220FFF7A8FD00204249AB
:1027B000C1F8900210BD10B500203E4908603C48A9
:1027C000006820F440603A4908600846006840F418
:1027D0008060086001203849C1F894020220FFF7A8
:1027E0008DFD0120334908600220FFF787FD00209E
:1027F0003149C1F8900210BD70B504462C480068FC
:1028000020F440602A4908600846006840F480606F
:102810000860002027490860002517E0E0092549E5
:10282000091D08606006040E0220FFF767FD012005
:102830002149C1F890020220FFF760FD00201D49E8
:1028400008600220FFF75AFD681CC5B2082DE5DBC1
:1028500070BD70B5054600241548006820F440603E
:1028600013490860084600680860002616E000204A
:10287000104908600220FFF741FD01200E49C1F810
:1028800090026006040E0B487C38006808B1601C9A
:10289000C4B20120FFF732FD701CC6B2082EE6DB81
:1028A00015B9FFF788FF01E0FFF764FF204670BD10
:1028B00000040240908240420080404270B50546CC
:1028C0000C46FFF7EDFED020FFF796FFFFF729FF3C
:1028D00018B1FFF707FF012070BD2846FFF78CFFF6
:1028E000FFF71FFF2046FFF787FFFFF71AFF18B11A
:1028F000FFF7F8FE0120EFE7FFF7F4FE0020EBE71B
:1029000070B504460025BC2C01DB012510E0622CCB
:1029100001DB02250CE02A2C01DB032508E0142C46
:1029200001DB042504E00A2C01DB052500E0062577
:1029300029461A20FFF7C2FF70BD70B50446B4F5F2
:102940007A7F01DD4FF47A74042C00DA04244FF40A
:102950007A7090FBF4F0401EC5B229461920FFF7AB
:10296000ADFF0546264604EBD671C1F34F00FFF7D5
:10297000C7FF70BD70B50446FFF792FED020FFF789
:102980003BFFFFF7CEFE2046FFF736FFFFF7C9FEFD
:10299000FFF786FED120FFF72FFFFFF7C2FE0020D2
:1029A000FFF757FF0546FFF79DFE284670BD10B59F
:1029B0000446E006010E1C20FFF780FF10BD10B595
:1029C0000446E006010E1B20FFF778FF10BD10B58E
:1029D000FFF748FE80216B20FFF770FF6420FFF7B0
:1029E000B7FC00216B20FFF769FF0120FFF7E7FF2D
:1029F0000020FFF7DCFF7D20FFF79FFF002138203C
:102A0000FFF75CFF00216A20FFF758FF0021232019
:102A1000FFF754FF80213720FFF750FF7520FFF7A5
:102A2000A9FF0446682C0BD101216B20FFF746FF5C
:102A300000216C20FFF742FF3220FFF77EFF01E00C
:102A4000012010BD0020FCE72DE9F04106460F46AD
:102A500014461D46FFF724FE002141EA4601C8B294
:102A6000FFF7CAFEFFF75DFE20B1FFF73BFE012036
:102A7000BDE8F0813846FFF7BFFEFFF752FEFFF7D3
:102A80000FFE012101EB4601C8B2FFF7B5FEFFF7CB
:102A900048FE0DE0012C04D10020FFF7DAFE28707B
:102AA00003E00120FFF7D5FE2870601EC4B26D1C44
:102AB000002CEFD1FFF716FE0020D9E710B52DED61
:102AC000088B82B001AB022241216820FFF7BCFFD6
:102AD0009DF805009DF8041040EA012004B220464C
:102AE00007F046F841EC1B0B9FED6B0B53EC102BE2
:102AF00006F0E6FE41EC1A0B9FED690B53EC102B30
:102B000006F02AFE41EC190B06F0F4FD08EE100A5F
:102B10009FED650A28EE000ABDEEC00A10EE100A0D
:102B200000B202B0BDEC088B10BD2DE9FC4104469B
:102B30000D4616466B46062243216820FFF784FFA8
:102B40000746BFB99DF801009DF8001040EA01203A
:102B500000B220809DF803009DF8021040EA012099
:102B600000B228809DF805009DF8041040EA01207D
:102B700000B230803846BDE8FC812DE9FC410446B6
:102B80000D4616466B4606223B216820FFF75CFF88
:102B90000746BFB99DF801009DF8001040EA0120EA
:102BA00000B220809DF803009DF8021040EA012049
:102BB00000B228809DF805009DF8041040EA01202D
:102BC00000B230803846BDE8FC812DE9FE43044662
:102BD0000D4617461E46DDE90A89200A8DF80000D9
:102BE000E0B28DF80100280A8DF80200E8B28DF8F5
:102BF0000300380A8DF80400F8B28DF80500300A99
:102C00008DF80600F0B28DF807004FEA18208DF815
:102C1000080008F0FF008DF809004FEA19208DF830
:102C20000A0009F0FF008DF80B000C226946A12074
:102C300003F072F8BDE8FE832DE9F04105460E462B
:102C400017469846FFF72CFD002141EA4501C8B21E
:102C5000FFF7D2FDFFF765FD20B1FFF743FD01202F
:102C6000BDE8F0813046FFF7C7FDFFF75AFD0024AD
:102C70000CE018F80400FFF7BFFDFFF752FD18B194
:102C8000FFF730FD0120EBE7601CC4B2BC42F0DB73
:102C9000FFF728FD0020E3E700000000004075403A
:102CA000A4703D0AD74342400000C84238B50446EC
:102CB000F74890F82400C0B114B10220009001E060
:102CC00000200090F24A1268D17BF14A52681078D5
:102CD0006B460122FFF7B0FF10B14FF0FF3038BD57
:102CE0009DF80010EA48417423E0E948807A10B961
:102CF0004FF0FF30F3E724B1E548407C08B10020F5
:102D0000EDE714B10120009001E000200090E04ABE
:102D10001268D17BDE4A526810786B460122FFF7B9
:102D20008BFF10B14FF0FF30D9E79DF80010D84865
:102D300041740020D3E738B500241FE0D448006870
:102D4000C07AA04204D0D2480068407DA04200D1A1
:102D500012E0CF49496808786B4601222146FFF707
:102D600073FE10B14FF0FF3038BD9DF800202146B2
:102D7000C8A005F0A1FB00BF601CC4B2C4484068F5
:102D80000079A042DADC0020EEE770B504460D467B
:102D9000BF480068C07AA04204D0BD480068407DAA
:102DA000A04202D14FF0FF3070BDB94840680079B1
:102DB000A04202DC4FF0FF30F6E7B54949680878D9
:102DC0002B4601222146FFF73FFEEDE738B50446CA
:102DD000AF4890F82300A04201D1002038BD14B1C3
:102DE0003020009001E000200090A948807C20B1B4
:102DF0009DF8000040F002000090A54890F82200E5
:102E000020B19DF8000040F080000090A04A1268B8
:102E1000117D9F4A526810786B460122FFF70CFF24
:102E200010B14FF0FF30D9E7994880F823400020D7
:102E3000D4E738B5044604F0700010B101200090CA
:102E400005E014B10020009001E040200090904A7D
:102E50001268917C8E4A526810786B460122FFF707
:102E6000EBFE20B100218A488172481E38BD9DF8D2
:102E7000000020F04001864801730020009004F01B
:102E8000400020B99DF8000040F00400009004F0DC
:102E9000200020B99DF8000040F00200009004F0EE
:102EA000100020B99DF8000040F00100009004F0EF
:102EB000080020B99DF8000040F038000090744AE6
:102EC0001268D17C724A526810786B460122FFF773
:102ED000B3FE20B100216E488172481EC6E724B1BE
:102EE000082C02D00020FFF771FF6948847200218E
:102EF00001753220FFF72CFA0020B7E738B50446F9
:102F00006348807CA04201D1002038BD002C46D00F
:102F10005F4A126811795E4A526810786B46012246
:102F2000FFF792FD10B14FF0FF30EEE79DF8000083
:102F300020F020000090564A12681179544A5268D5
:102F400010786B460122FFF777FE10B14FF0FF308B
:102F5000DBE70320FFF7FCF9022000904C4890F8D3
:102F6000220020B19DF8000040F080000090484809
:102F700090F8230020B19DF8000040F03000009050
:102F8000434A1268117D424A526810786B4601220A
:102F9000FFF752FE002851D04FF0FF30B5E73C4A12
:102FA000126811793A4A526810786B460122FFF78D
:102FB0004BFD10B14FF0FF30A7E73548807A00F0A5
:102FC000010028B19DF8000040F02000009004E0CE
:102FD0009DF8000020F0200000902D4A1268117921
:102FE0002B4A526810786B460122FFF725FE10B17C
:102FF0004FF0FF3089E70320FFF7AAF9244890F843
:10300000220010B18020009001E0002000902048B4
:1030100090F8230020B19DF8000040F030000090AF
:103020001B4A1268117D1A4A526810786B460122B9
:10303000FFF702FE10B14FF0FF3066E714488474CA
:10304000002062E708B51248807A10B94FF0FF30CF
:1030500008BD002000900E4A1268D17B0C4A5268CD
:1030600010786B460122FFF7E7FD10B14FF0FF30FB
:10307000EEE7074A12685179054A526810786B46A4
:103080000122FFF7D9FD68B14FF0FF30E0E7000003
:1030900060000020252335783A20252335780D0A55
:1030A00000000000F84A12681179F74A5268107857
:1030B0006B460122FFF7C0FD10B14FF0FF30C7E7AC
:1030C000F14890F82400002853D00C200090EE4ADC
:1030D00012681179EC4A526810786B460122FFF7AA
:1030E000ABFD10B14FF0FF30B2E73220FFF730F9FF
:1030F000C0200090E448807A00F0010020B19DF8E3
:10310000000040F020000090DF4A12681179DE4A8A
:10311000526810786B460122FFF78EFD10B14FF018
:10312000FF3095E7D848407C10B10220009001E0C4
:1031300000200090D44A1268D17BD34A526810789C
:103140006B460122FFF778FD10B14FF0FF307FE7AB
:1031500000200090CC4A12685179CB4A526810780E
:103160006B460122FFF768FD002855D04FF0FF3075
:103170006EE704200090C44A12681179C24A52686E
:1031800010786B460122FFF757FD10B14FF0FF306A
:103190005EE7BD48807C20B9BB48807A00F0010022
:1031A00010B94020009001E060200090B64A1268FB
:1031B0001179B54A526810786B460122FFF73CFD41
:1031C00010B14FF0FF3043E73220FFF7C1F8AE48AF
:1031D000407C10B10120009001E000200090AA4A3C
:1031E0001268D17BA84A526810786B460122FFF71B
:1031F00023FD10B14FF0FF302AE7A34A126851793E
:10320000A14A52681078A04B10330122FFF714FD39
:1032100010B14FF0FF301BE7002019E770B50446EE
:10322000002624F00104984890F8240008B10020FA
:1032300070BD9548807A10B94FF0FF30F8E792489A
:10324000057C807A2040904908740846007CA042A2
:1032500002D04FF0FF3600E0002614B98A48007D06
:1032600018B10120FFF722FD02E00020FFF71EFD4C
:103270003CB1FFF7E7FE20B1834805744FF0FF3003
:10328000D6E73046D4E738B504467F48807A10B98F
:103290004FF0FF3038BDBC2C02DB0120009015E060
:1032A000622C02DB0220009010E02A2C02DB0320BB
:1032B00000900BE0142C02DB0420009006E00A2CA6
:1032C00002DB0520009001E0062000906E48C07AE5
:1032D0009DF80010884201D10020DBE76A4A12689D
:1032E0009178694A526810786B460122FFF7A4FC76
:1032F00010B14FF0FF30CDE79DF800106248C17269
:103300000020C7E738B50446282C02DD4FF0FF3017
:1033100038BDDCB90020FFF759FD00208DF8000012
:1033200007208DF80100584A1268917C564A52686D
:1033300010786B460222FFF77FFC10B14FF0FF3090
:10334000E6E70021504801750020E1E70120FFF782
:103350003DFD20208DF80000012C06D100208DF8C5
:1033600001000520FFF78FFF17E0052C06DC012088
:103370008DF801000520FFF786FF0EE0142C06DC17
:1033800002208DF801000A20FFF77DFF05E00320F1
:103390008DF801001420FFF776FF9DF8010007214A
:1033A00001EB8010C0B28DF80100374A1268917CA1
:1033B000354A526810786B460222FFF73DFC10B187
:1033C0004FF0FF30A4E708212F48817200210173DC
:1033D000012101750020FFF721FF002098E738B593
:1033E00004462948807A10B94FF0FF3038BD26488E
:1033F00090F8240010B14FF0FF30F7E72248007D2D
:1034000050B134B1282C04DCE0B2FFF77BFF002080
:10341000ECE70020FFF776FF042C01DA042404E037
:10342000B4F57A7F01DD4FF47A744FF47A7090FB33
:10343000F4F0401EC0B20090134A12685178124A4C
:10344000526810786B460122FFF7F6FB10B14FF07F
:10345000FF30CBE79DF80000401C4FF47A7191FBE0
:10346000F0F081B20848C1810146C9894810FFF7D0
:103470000AFF0020BAE738B504460348807A28B925
:103480004FF0FF3038BD000060000020022C06D055
:10349000042C07D0082C08D0102C0CD108E00020F8
:1034A00000900BE00820009008E01020009005E05C
:1034B0001820009002E04FF0FF30E3E700BFF7482C
:1034C000407A9DF80010B0EBE10F01D10020D9E760
:1034D000F24A1268D179F14A526810786B4601229B
:1034E000FFF7AAFB10B14FF0FF30CBE79DF80000CB
:1034F000C110EA4841720020C4E738B50446E748E5
:10350000807A10B94FF0FF3038BDFA2C09D0B4F5ED
:10351000FA7F09D0B4F57A7F09D0B4F5FA6F0CD1EF
:1035200008E0002000900BE00820009008E0102048
:10353000009005E01820009002E04FF0FF30E3E734
:1035400000BFD648007A9DF80010B0EBE10F01D122
:103550000020D9E7D14A12689179D04A5268107890
:103560006B460122FFF768FB10B14FF0FF30CBE74D
:103570009DF80000C010C94908720020C4E71CB5BE
:1035800080208DF80000C54A1268917CC34A5268B9
:1035900010786B460122FFF74FFB10B14FF0FF3060
:1035A0001CBD6420FEF7D4FE00208DF80000BB4A4D
:1035B0001268917CB94A526810786B460122FFF775
:1035C0003BFB10B14FF0FF30EAE7B44A1268917D3F
:1035D000B24A526810786B460622FFF735FA10B1EE
:1035E0004FF0FF30DCE79DF80500C007400F9DF865
:1035F000031001F0010140EA41009DF8011001F0C3
:10360000010140EA010494B1012C03D10121A34836
:10361000C17431E0022C03D10021A048C1742BE019
:1036200021469FA004F048FF4FF0FF30B8E79B4AC7
:103630001268D178994A526810786B460122FFF7D8
:1036400003FA10B14FF0FF30AAE79DF8000000F038
:103650000F042CB99C4804F02FFF4FF0FF309FE778
:10366000042C06D199A004F027FF01218B48C174D6
:1036700002E000218948C174FF2188488172FF203F
:1036800086490872FF2185484172C1724FF6FF7169
:10369000C181FF21017481740121017380F822101E
:1036A000002180F8231041750175163001604160DA
:1036B0008160163880F8241080F82510C1844FF4FA
:1036C000FA60FFF71AFF10B14FF0FF3068E70220F1
:1036D000FFF7D1FE10B14FF0FF3061E72A20FFF76E
:1036E000D2FD10B14FF0FF305AE73220FFF777FEDE
:1036F00010B14FF0FF3053E70020FFF78FFD10B1FE
:103700004FF0FF304CE70020FFF7F8FB10B14FF00F
:10371000FF3045E70020FFF78CFB002040E77047B3
:103720007CB504460D465D48807A00F0700010B903
:103730004FF0FF307CBD594A1268117B574A5268DE
:1037400010786B460622FFF77FF910B14FF0FF307B
:10375000F0E79DF801009DF8001040EA012000B25A
:1037600020809DF803009DF8021040EA012000B27D
:1037700060809DF805009DF8041040EA012000B229
:10378000A08015B12846FFF7CAFF0020D2E77CB51C
:1037900004460D464148807A00F0080010B94FF009
:1037A000FF307CBD3D4A1268517B3C4A526810781C
:1037B0006B460622FFF748F910B14FF0FF30F0E7F3
:1037C0009DF801009DF8001040EA012000B2208021
:1037D0009DF803009DF8021040EA012000B26080CD
:1037E0009DF805009DF8041040EA012000B2A08079
:1037F00015B12846FFF793FF0020D2E7F8B506463B
:103800000C462648807A10B94FF0FF30F8BD234AA5
:103810001268917B214A526810786B460222FFF7AA
:1038200013F910B14FF0FF30F0E79DF801009DF85B
:10383000001040EA012005B214B12046FFF76FFFE7
:1038400016484068B0F9080000EE100AF8EEC00A09
:1038500000EE105AB8EEC00A70EE600A0F484068D9
:10386000C08800EE100AB8EE400A80EE801A9FED84
:103870001F0A31EE000ADFED1E0A20EE200ABDEE1F
:10388000C00A86ED000A0020C0E710B588B00446E3
:103890001CB94FF0FF3008B010BD2BE060000020D5
:1038A000556E737570706F7274656420736F667493
:1038B000776172652070726F6475637420726576CB
:1038C0002025642E0A00000070B1000848616C6673
:1038D0002073656E7369746976697479207061729A
:1038E0007420666F756E642E0A00000000000C42A2
:1038F00000008047206830B9606820B9A06810B91E
:10390000002008B010BDF9494968087806AB0322C9
:103910001146FFF799F810B14FF0FF30F1E79DF82D
:103920001800082101EB201000F00F00ADF8000096
:103930009DF8190001EB201000F00F00ADF8020017
:103940009DF81A0001EB201000F00F00ADF8040004
:1039500020684100BDF90000403091FBF0F000B25A
:10396000ADF8100060684100BDF90200403091FBE5
:10397000F0F000B2ADF81200A0684100BDF90400FB
:10398000403091FBF0F000B2ADF81400D74949681F
:10399000087806AB06221146FFF756F810B14FF033
:1039A000FF30AEE79DF819009DF8181040EA01209D
:1039B00000B2ADF808009DF81B009DF81A1040EA0F
:1039C000012000B2ADF80A009DF81D009DF81C1002
:1039D00040EA012000B2ADF80C00BDF81000BDF8BF
:1039E0000810084400B2ADF81000BDF81200BDF890
:1039F0000A10084400B2ADF81200BDF81400BDF87A
:103A00000C10084400B2ADF81400BDF81000000A14
:103A10008DF81800BDF81000C0B28DF81900BDF87F
:103A20001200000A8DF81A00BDF81200C0B28DF81D
:103A30001B00BDF81400000A8DF81C00BDF814002E
:103A4000C0B28DF81D00A9494968087806AB062266
:103A50001146FFF7F1F810B14FF0FF3051E70020A9
:103A60004FE70146A148007A30B1012807D002286B
:103A700009D003280FD10AE0FA2008800EE04FF4A5
:103A8000FA7008800AE04FF47A70088006E04FF47C
:103A9000FA60088002E00020088000BF00BF00201C
:103AA000704701469148407A30B1012807D002287A
:103AB00008D003280CD108E0022008700BE0042095
:103AC000087008E00820087005E01020087002E087
:103AD0004FF0FF30704700BF8448C07C18B10878B1
:103AE0004006000E08700020F4E701467F48C07AC7
:103AF000082817D2DFE800F01704070A0D10131882
:103B0000BC20088013E06220088010E02A20088092
:103B10000DE0142008800AE00A20088007E0052054
:103B2000088004E000BF00BF0020088000BF00BF85
:103B30000020704701466D4890F8240010B14FF006
:103B4000FF3070476948C08908800020F9E70146C6
:103B500000200880401E704701464FF0FF3070473C
:103B600001466248007A30B1012809D002280CD001
:103B7000032814D10EE09FED5E0A81ED000A11E0EA
:103B80009FED5C0A81ED000A0CE09FED5B0A81ED80
:103B9000000A07E09FED590A81ED000A02E04FF0AC
:103BA000FF30704700BF0020FBE701464F48407AD6
:103BB00030B1012808D002280AD0032810D10BE028
:103BC0004FF4804008800EE041F69C7008800AE0C7
:103BD0004FF48050088006E04FF40060088002E057
:103BE0004FF0FF30704700BF4048C07C10B10888DC
:103BF000401008800020F5E701463C48007C087032
:103C00000020704701463948807A10B101200870C1
:103C100001E0002008700020704738B504463348A2
:103C2000807A10B94FF0FF3038BD304A1268117CED
:103C30002E4A526810786B460222FEF705FF10B13B
:103C40004FF0FF30F0E79DF801009DF8001040EACA
:103C5000012000B220800020E6E72DE9FE4F074654
:103C6000884692461D46DDF830B0002600241F48E5
:103C700090F8240010B1601EBDE8FE8F002028706F
:103C80001A48807A10B94FF0FF30F5E71748007CEA
:103C900010B94FF0FF30EFE71448007C00F040000F
:103CA00008B1B01CC6B21148007C00F0200008B179
:103CB000B01CC6B20D48007C00F0100008B1B01C6A
:103CC000C6B20A48007C00F0080008B1B01DC6B2B8
:103CD000064A1268917A054A526810786B460222A9
:103CE000FEF7B2FE60B14FF0FF30C5E76000002084
:103CF00000000343000083423333034233338341E4
:103D00009DF801009DF8001040EA0129B14501DA53
:103D10000020B1E7FA4840684088B9EB600F17DD32
:103D2000F74A1268517CF64A526810786B460122B5
:103D3000FEF78AFE10B14FF0FF309DE79DF80000BE
:103D400000F0100020B1FFF77DF96FF0010093E75C
:103D50005046FFF7E4FCEA4A1268D17AE84A526812
:103D600010786B463246FEF76FFE10B14FF0FF3011
:103D700082E799FBF6F0401E8BF8000000202870C7
:103D8000B4422AD0DE48007C00F0080028B3601C52
:103D90001DF800001DF8041040EA012000B2A8F848
:103DA0000000E01C1DF80010A01C1DF8000041EAF6
:103DB000002000B2A8F80200601D1DF80010201DB0
:103DC0001DF8000041EA002000B2A8F8040028789D
:103DD00040F008002870A01D84B2B44213D0C84837
:103DE000007C00F0400070B1601C1DF800001DF860
:103DF000041040EA012000B23880287840F04000EA
:103E00002870A01C84B2B44213D0BD48007C00F0DE
:103E1000200070B1601C1DF800001DF8041040EA7D
:103E2000012000B27880287840F020002870A01C83
:103E300084B2B44213D0B248007C00F0100070B1DC
:103E4000601C1DF800001DF8041040EA012000B2BB
:103E5000B880287840F010002870A01C84B20020A0
:103E60000AE7F8B504460F461646A54890F8240020
:103E700010B94FF0FF30F8BDA148807A10B94FF06B
:103E8000FF30F8E79E4A1268917A9D4A526810788E
:103E90006B460222FEF7D8FD10B14FF0FF30EAE783
:103EA0009DF801009DF8001040EA0125A54203DAC3
:103EB00000203070401EDEE7914840684088B5EB36
:103EC000600F17DD8E4A1268517C8D4A5268107857
:103ED0006B460122FEF7B8FD10B14FF0FF30CAE784
:103EE0009DF8000000F0100020B1FFF7ABF86FF074
:103EF0000100C0E7E2B2824B1B68D97A804B5B6855
:103F000018783B46FEF7A0FD10B14FF0FF30B2E746
:103F100095FBF4F0401E30700020ACE70146784875
:103F200080F82210002070477CB505467449496826
:103F3000087801AB04220D21FEF786FD08B10720A9
:103F40007CBD9DF80700C0F301109DF8041001F03E
:103F5000E00140EAE1008DF800009DF80700C0F3A1
:103F600081009DF8051001F0E00140EAE1008DF8C4
:103F700001009DF8070000F003009DF8061001F015
:103F8000E00140EAE1008DF80200002427E01DF87E
:103F9000040030B99FED5B0A05EB840080ED000A58
:103FA0001BE09FED590A05EB840080ED000A0BE051
:103FB00005EB840090ED000ADFED540A20EE200AA4
:103FC00005EB840080ED000A1DF80400401EC0B21D
:103FD0000DF804000028EBD100BF601CC4B2032C14
:103FE000D5DB0020ACE7F0B52DED028B83B00646A3
:103FF0000F4600256846FFF797FF002447E056F874
:10400000241057F82420881A002801DB014600E01C
:10401000414200EE101AB8EEC00ADFED3D0A80EE14
:10402000208A684600EB840090ED000AB5EEC00AD5
:10403000F1EE10FA18D0684600EB8400D0ED000ACB
:1040400088EE200AF7EE000A70EE608AB0EEE80A09
:104050003048D0ED090AB4EEE00AF1EE10FA15DDB1
:104060000120A040054311E02A4890ED070AB4EE74
:10407000C80AF1EE10FA06DC90ED080AB4EEC80AA0
:10408000F1EE10FA02D20120A0400543641C032C7B
:10409000B5DB284603B0BDEC028BF0BDF0B52DEDCD
:1040A000048B81B006460F460025154949680878FB
:1040B0006B4603220D21FEF7C7FC20B1072001B09B
:1040C000BDEC048BF0BD9DF8000000F01F008DF8E2
:1040D00000009DF8010000F01F008DF801009DF820
:1040E000020000F01F008DF80200002461E056F885
:1040F000241057F82420881A00280DDB01460CE014
:1041000060000020000000007B14AE3E1D5A843F7A
:104110000000804724A30008414200EE101AB8EEC8
:10412000C00A5FED050A80EE208A1DF8040068B31E
:10413000FE4890ED000AB8EE400ADFEDFD0A80EE81
:10414000801AF0EE418A05E09FEDFA0A28EE800A17
:10415000F0EE408A1DF80400401EC0B20DF80400C5
:104160000028F1D188EE280AF7EE000A30EE609AB6
:10417000B0EEC90AED48D0ED060AB4EEE00AF1EE61
:1041800010FA15DD0120A040054311E0E74890ED4D
:10419000040AB4EEC80AF1EE10FA06DC90ED050A46
:1041A000B4EEC80AF1EE10FA02D20120A040054395
:1041B000641C032C9BDB284681E72DE9F04F87B078
:1041C00005460C46914601208DF8100000208DF820
:1041D0001100D94A1268917CD74A5268107804AB12
:1041E0000222FEF729FD20B14FF0FF3007B0BDE8F5
:1041F000F08FC820FEF7ACF800208DF81000CE4AF2
:104200001268D17BCC4A5268107804AB0122FEF7C9
:1042100013FD10B14FF0FF30E8E7C74A126851793B
:10422000C54A5268107804AB0122FEF705FD10B1B3
:104230004FF0FF30DAE7C04A1268917CBE4A5268FC
:10424000107804AB0122FEF7F7FC10B14FF0FF30FD
:10425000CCE7B94A1268D17DB74A5268107804ABEE
:104260000122FEF7E9FC10B14FF0FF30BEE7B24A81
:1042700012681179B04A5268107804AB0122FEF737
:10428000DBFC10B14FF0FF30B0E70C208DF81000D0
:10429000A94A12681179A84A5268107804AB012221
:1042A000FEF7CAFC10B14FF0FF309FE70F20FEF77A
:1042B0004FF8A148806A407A8DF810009E4A126833
:1042C00091789D4A5268107804AB0122FEF7B4FC45
:1042D00010B14FF0FF3089E79748806A007A8DF877
:1042E0001000954A12685178934A5268107804ABCE
:1042F0000122FEF7A1FC10B14FF0FF3076E7B9F1D3
:10430000000F07D08C48806A807A40F0E0008DF87A
:10431000100004E08848806A807A8DF81000864A90
:1043200012689179844A5268107804AB0122FEF732
:1043300083FC10B14FF0FF3058E7B9F1000F07D000
:104340007D48806AC07A40F0E0008DF8100003E0FC
:104350007648C07A8DF81000774A1268D179764A8B
:104360005268107804AB0122FEF766FC10B14FF0E2
:10437000FF303BE7B9F1000F02D0C820FDF7E8FF9E
:1043800040208DF810006C4A126811796A4A526810
:10439000107804AB0122FEF74FFC10B14FF0FF3054
:1043A00024E778208DF81000634A12685179624A38
:1043B0005268107804AB0122FEF73EFC10B14FF0BA
:1043C000FF3013E759498889FDF7C2FF00208DF8B7
:1043D0001000594A12685179574A5268107804AB54
:1043E0000122FEF729FC10B14FF0FF30FEE6524AE1
:1043F0001268917A504A5268107804AB0222FEF794
:1044000023FB10B14FF0FF30F0E69DF811009DF84E
:10441000101040EA012B0C209BFBF0F0C6B20020EC
:10442000A86068602860A06060602060824665E0E7
:10443000414A1268D17A404A5268107804AB0C2283
:10444000FEF702FB10B14FF0FF30CFE69DF81100F0
:104450009DF8101040EA012000B2ADF808009DF868
:1044600013009DF8121040EA012000B2ADF80A00D6
:104470009DF815009DF8141040EA012000B2ADF837
:104480000C00BDF90810206808442060BDF90A102E
:10449000606808446060BDF90C10A0680844A06022
:1044A0009DF817009DF8161040EA012000B2ADF803
:1044B00000009DF819009DF8181040EA012000B294
:1044C000ADF802009DF81B009DF81A1040EA01208B
:1044D00000B2ADF80400BDF9001028680844286057
:1044E000BDF90210686808446860BDF90410A86846
:1044F0000844A8600AF1010000F0FF0AB24597DB0A
:104500000A48D0F800C02868C117090441EA1041E0
:10451000070462460023384603F0AAFF3246002310
:10452000CDE9020103F0A4FF286007E024A30008FE
:1045300000B04C4554E3853F60000020F848D0F8B7
:1045400000C06868C117090441EA104107046246C7
:104550000023384603F08CFF32460023CDE90201E8
:1045600003F086FF6860EE48D0F800C0A868C11765
:10457000090441EA1041070462460023384603F06B
:1045800077FF32460023CDE9020103F071FFA860F6
:10459000E348D0F804C02168C817000440EA114875
:1045A0000F04624600233846414603F061FF32465D
:1045B0000023CDE9020103F05BFF2060D848D0F86A
:1045C00004C06068C117090441EA1041070462464B
:1045D0000023384603F04CFF32460023CDE90201A8
:1045E00003F046FF6060CE48D0F804C0A068C11751
:1045F000090441EA1041070462460023384603F0EB
:1046000037FF32460023CDE9020103F031FFA060FD
:10461000A068002804DDA068A0F58030A06003E059
:10462000A06800F58030A0600020DFE538B50446C2
:10463000BC4890F82400A04201D1002038BD24B32A
:10464000B84890F8250010B94FF0FF30F6E7002089
:10465000FEF72CFB0020FEF751FCB249C88CFEF798
:10466000BEFE00200090AF49496808786B460122E1
:104670002321FEF7E1FA0121AA4880F82410012045
:10468000FEF714FBFEF7DEFC13E00020FEF70EFB46
:10469000A448007C0090A349496808786B46012231
:1046A0002321FEF7C9FA00219E4880F82410FEF766
:1046B000C9FC0020C2E72DE9F04F8DB083460F46BC
:1046C00002200C90974890F8240020B10020FFF7BA
:1046D000ADFF012600E0002603A8FFF7C2F905A8F8
:1046E000FFF7DFF901A8FFF700FA02A8FFF722FAA7
:1046F0008C4890F80AA004A8FFF77EFA002407E08F
:10470000002239465846FFF758FD00B902E0641C04
:10471000022CF5DB00BF022C01D1002528E000248B
:1047200007E0012206A909A8FFF747FD00B902E04A
:10473000641C022CF5DB00BF022C01D1002517E020
:1047400006A93846FFF74FFC00F0FF0809A95846B4
:10475000FFF7A4FC00F0FF090025B9F1000F01D11B
:1047600045F00105B8F1000F01D145F0020500BF89
:10477000FF206C490872FF216A484172C1724FF6EE
:10478000FF71C181FF218172017401210173BDF8A4
:104790000C00FEF7B2FE9DF81400FEF76CFEBDF8AB
:1047A0000400FEF770FDBDF80800FEF718FE504645
:1047B000FEF73FFB9DF81000FEF730FD16B101201B
:1047C000FFF734FF28460DB0BDE8F08FF8B504467A
:1047D0000D46164616B94FF0FF30F8BD5148807AA5
:1047E00010B94FF0FF30F8E720128DF80000E0B26A
:1047F0008DF801009DF8010028444A49496849891B
:10480000884202DD4FF0FF30E7E7464A1268117E2A
:10481000444A526810786B460222FEF70DFA10B136
:104820004FF0FF30D9E7EAB23E4B1B68597D3D4B54
:104830005B6818783346FEF7FFF910B14FF0FF3090
:10484000CBE70020C9E7F8B504460D46164616B971
:104850004FF0FF30F8BD3348807A10B94FF0FF3089
:10486000F8E720128DF80000E0B28DF801009DF805
:10487000010028442B4949684989884202DD4FF0EC
:10488000FF30E7E7274A1268117E264A52681078FF
:104890006B460222FEF7D0F910B14FF0FF30D9E796
:1048A000EAB2204B1B68597D1E4B5B681878334673
:1048B000FEF7CAF810B14FF0FF30CBE70020C9E790
:1048C0002DE9F04385B005460E46904699461548B9
:1048D00090F8250020B14FF0FF3005B0BDE8F0831F
:1048E00016B94FF0FF30F8E7002428E0281B102805
:1048F00001DD102000E0281B87B23219394620461E
:10490000FFF764FF10B14FF0FF30E6E701AA394628
:104910002046FFF798FF38B14FF0FF30DDE7000089
:1049200024A300086000002030193A4601A903F0D2
:10493000FBFE10B16FF00100CFE7E01984B2AC428A
:10494000D4DB4FEA28208DF8000008F0FF008DF836
:104950000100F94A1268917EF74A526810786B4656
:104960000222FEF769F910B14FF0FF30B5E70121DF
:10497000F14880F82510A0F826900020ADE7014608
:10498000ED4890F824000870002070474FF0FF3089
:10499000704702464FF0FF30704701464FF0FF303E
:1049A0007047F8B505460F461446002C70D0B5F593
:1049B000FF5F01DDFF2605E0202D01DA012601E081
:1049C000C5F3471607B90127282C02DD4FF0FF3049
:1049D000F8BDD948407D28BBD74890F8240038B1AD
:1049E0000020FFF723FE0121D34880F8201003E0C8
:1049F0000021D14880F82010CF481630FFF731F859
:104A0000CD481830FFF74DF8CB481A30FFF76DF856
:104A1000C9481C30FFF78EF8C748817A81771F306C
:104A2000FFF7EAF80020FEF741F90020FEF76AFCE4
:104A300000208DF80000C04A12689178BE4A526882
:104A400010786B460122FEF7F7F810B14FF0FF30F7
:104A5000BEE740208DF80000B74A1268D17BB64A05
:104A6000526810786B460122FEF7E6F800B165E067
:104A70008DF800608DF80170AF4A1268117AAE4A65
:104A8000526810786B460222FEF7D6F808B155E05E
:104A900047E00520FDF75CFCA748407A072101EBC1
:104AA000C000C0B28DF80000A34A1268D179A24AB2
:104AB000526810786B460122FEF7BEF800B13DE067
:104AC00020208DF80000012C03D100208DF801007A
:104AD0000EE0052C03DC01208DF8010008E0142C09
:104AE00003DC02208DF8010002E003208DF80100B4
:104AF0009DF80100072101EB8010C0B28DF8010084
:104B00008D4A1268917C8C4A526810786B4602225A
:104B1000FEF792F800B111E00121874841750020AD
:104B200056E7854A1632002103E0505C00B105E0EB
:104B3000491C0C29F9D34FF0FF3049E7FF207E498B
:104B40000872FF217C484172C1724FF6FF71C1812A
:104B5000FF2181720174012101730146887FFEF7F4
:104B600068F97549C88AFEF7C8FC7349087EFEF7E4
:104B700082FC7149488BFEF786FB6F49888BFEF7F4
:104B80002EFC6D49C87FFEF749FB6B4890F820006A
:104B900010B10120FFF74AFD002167484175002050
:104BA00016E710B588B002A905A8FFF784FD0446F2
:104BB000032C41D101A8FEF7D3FF9DED050AB8EE05
:104BC000C00ADDED010A20EE200ABDEEC00A8DED1F
:104BD000050A9DED060AB8EEC00ADDED010A20EED9
:104BE000200ABDEEC00A8DED060A9DED070AB8EE5B
:104BF000C00ADDED010A20EE200ABDEEC00A8DEDEF
:104C0000070A05A800F04DFA6846FEF7CEFFBDF88A
:104C10000010029848430290BDF8001003984843E2
:104C20000390BDF8001004984843049002A800F0D7
:104C3000CBFA002008B010BD0120FBE7014691F936
:104C40000020002A01DD00201EE091F90020002A4A
:104C500001DA042018E091F90120002A01DD012089
:104C600012E091F90120002A01DA05200CE091F907
:104C70000220002A01DD022006E091F90220002A2C
:104C800001DA062000E00720704710B504462046F0
:104C9000FFF7D4FF0346E01CFFF7D0FF43EAC00054
:104CA00083B2A01DFFF7CAFF43EA801083B2184603
:104CB00010BD70B50024FDF7D5FCFEF760FC0028A0
:104CC00045D17820FEF7B5F8C4B20CB1012070BD13
:104CD0007820FEF7A3FAC4B20CB10220F7E76420F3
:104CE000FEF77DFBC4B20CB10320F0E700F03EF903
:104CF000C4B20CB10420EAE71048FFF7C6FF05462E
:104D000000F03EF9C4B20CB10520E0E740F27310A8
:104D100000F087FDC4B20CB10620D8E7642000F093
:104D2000E9FAC4B20CB10720D1E7FFF73AFF044615
:104D300034B10820CBE70000600000208C00002088
:104D40000120FFF773FCC4B20CB10920BFE70020BB
:104D5000BDE770B52DED0C8B8EB004460D461646A2
:104D6000B7EE000AF0EE409A9FED7C0AB0EE408A62
:104D70009FED7A0AF0EE408A9FED780AB0EE409AF5
:104D800007A808A90DAB03AACDE9001009A90BA833
:104D900000F0A6FE20B101200EB0BDEC0C8B70BD62
:104DA000BDF8200000F4807000287CD09DED030A3F
:104DB000B8EEC00ADFED6A0A80EE201AF0EE419AE2
:104DC0009DED040AB8EEC00ADFED650A80EE201AF8
:104DD000B0EE418A9DED050AB8EEC00ADFED600A2B
:104DE00080EE201AF0EE418A9DED060AB8EEC00A68
:104DF000DFED5B0A80EE201AB0EE419AB8EE000AB1
:104E000028EE000A20EE090AF0EE000A69EEA00A78
:104E100000EEA80A10EE101A084605F0F3F941EC6E
:104E20001C0BB0EE4C0AF0EE6C0A03F035FFB0EE4E
:104E300040BAF0EE60BA9FED4B0B53EC102B51ECE7
:104E40001B0B04F0E9FE41EC1A0B04F053FC20604C
:104E5000B8EE000A28EE000A20EE080AF0EE000A7A
:104E600068EEA00A00EEE80AF7EE000A30EE200A2B
:104E700010EE101A084605F0C5F941EC1C0BB0EE17
:104E8000000A28EE800A20EE090AF0EE000A69EE18
:104E9000A00A00EE880A10EE101A084605F0B2F9D2
:104EA00041EC1D0B00E054E0B0EE4C1AF0EE6C1A31
:104EB000B0EE4D0AF0EE6D0A04F00AFAB0EE40BA18
:104EC000F0EE60BA9FED270B53EC102B51EC1B0B4F
:104ED00004F0A2FE41EC1A0B04F00CFC286029EE51
:104EE000A90A08EE080A08EEE80A09EE490A10EED7
:104EF000101A084605F086F941EC1C0B28EE280A2A
:104F000009EE890AF0EE000A20EE200A10EE101ACF
:104F1000084605F077F941EC1D0BB0EE4C1AF0EEA7
:104F20006C1AB0EE4D0AF0EE6D0A04F0D1F9B0EE55
:104F300040BAF0EE60BA9FED0B0B53EC102B51EC26
:104F40001B0B04F069FE41EC1A0B04F0D3FB30603C
:104F500001E0022020E700201EE700000000000022
:104F60000000804E6666666666A64C4010B5C82393
:104F70004FF48062F74940F6F630FFF7A1FC10BD10
:104F800010B586B00446F4A000680390F3A0006852
:104F90000290F3A000680190F2A00068009004F075
:104FA000030003A9085C8DF8140003A8C4F3C10131
:104FB000405C8DF8150003A8C4F38111405C8DF8A6
:104FC000160004F0030002A9085C8DF8100002A886
:104FD000C4F3C101405C8DF8110002A8C4F3811133
:104FE000405C8DF8120005AA032140F22640FFF72D
:104FF000EDFB18B14FF0FF3006B010BD04AA03213D
:1050000040F22A40FFF7E2FB10B14FF0FF30F3E728
:10501000019805900098049004F0040058B19DF8A0
:10502000140040F001008DF814009DF8100040F0CD
:1050300001008DF8100004F0200058B19DF8150013
:1050400040F001008DF815009DF8110040F00100BE
:105050008DF8110004F4807058B19DF8160040F0EE
:1050600001008DF816009DF8120040F001008DF847
:10507000120005AA03214FF48860FFF7A7FB10B1C7
:105080004FF0FF30B8E704AA032140F23140FFF7A8
:105090009DFB10B14FF0FF30AEE7B3480481002014
:1050A000AAE71FB50446B048007A00F0030054F8A0
:1050B00020000190AC48007A00F0040010B1019883
:1050C00040420190A848007AC0F3C10054F8200083
:1050D0000290A548007A00F0200010B102984042EA
:1050E0000290A148007AC0F3811054F82000039088
:1050F0009D48008900F4807010B1039840420390ED
:105100009A49019880FB0101800F40EA81000190DB
:105110009649029880FB0110820042EA9170029049
:105120009249039880FB0110820042EA917003903B
:105130000198000E8DF800000198000C8DF8010018
:105140000198000A8DF802000198C0B28DF80300A2
:105150006A4604214FF47470FFF738FB18B14FF022
:10516000FF3004B010BD0298000E8DF800000298C8
:10517000000C8DF801000298000A8DF802000298D8
:10518000C0B28DF803006A4604214FF47570FFF732
:105190001DFB10B14FF0FF30E3E70398000E8DF8D0
:1051A00000000398000C8DF801000398000A8DF8A8
:1051B00002000398C0B28DF803006A4604214FF440
:1051C0007670FFF703FBCCE770B588B0064601A800
:1051D000FEF7EBFCBDF804000021C90341EA50458D
:1051E000C4036148007A00F0030056F820000590DF
:1051F0005D48007A00F0040010B105984042059027
:105200005948007AC0F3C10056F82000069056486D
:10521000007A00F0200010B10698404206905248F3
:10522000007AC0F3811056F8200007904E4800899C
:1052300000F4807010B10798404207900598C1179C
:10524000A0FB042301FB043100FB0510810041EAAF
:10525000927005900698C117A0FB042301FB04314E
:1052600000FB0510810041EA927006900798C11773
:10527000A0FB042301FB043100FB0510810041EA7F
:10528000927007900598000E8DF808000598000CA4
:105290008DF809000598000A8DF80A000598C0B23B
:1052A0008DF80B000698000E8DF80C000698000C87
:1052B0008DF80D000698000A8DF80E000698C0B211
:1052C0008DF80F000798000E8DF810000798000C5D
:1052D0008DF811000798000A8DF812000798C0B2E7
:1052E0008DF8130002AA0C214FF42570FFF76EFA17
:1052F00008B070BD30B585B004461DA207CA02AB28
:1053000007C3C82C03DD4FF0FF3005B030BDC82007
:1053100090FBF4F0401E85B2280A8DF80000E8B238
:105320008DF801006A46022140F21620FFF74EFA7E
:1053300010B14FF0FF30E8E702AA0C2140F6C1207F
:10534000FFF744FA10B14FF0FF30DEE706488481E2
:105350000020DAE74CA300084CCD6C000CC92C00EF
:105360003656760026466600B01A002009E3CA02C7
:10537000FEF2ABC4AAF1DFDFBBAFDFDF0146F948C5
:105380008089088000207047F0B52DED028B83B036
:1053900006460F4606F0070010B1B7F5C86F05DDE9
:1053A0004FF0FF3003B0BDEC028BF0BD00EE107A81
:1053B000B8EE400ADFEDEC0A80EE208A01A8FEF785
:1053C00070FB9DF80400022806D0042817D0082896
:1053D00028D010284CD138E09FEDE40A28EE000ACE
:1053E000BCEEC00A10EE100A84B29FEDE10A28EE6E
:1053F000000ABCEEC00A10EE100A85B23BE09FED39
:10540000DD0A28EE000ABCEEC00A10EE100A84B2D3
:105410009FEDD90A28EE000ABCEEC00A10EE100A71
:1054200085B228E09FEDD50A28EE000ABCEEC00A3E
:1054300010EE100A84B29FEDD20A28EE000ABCEEEC
:10544000C00A10EE100A85B215E09FEDCE0A28EED4
:10545000000ABCEEC00A10EE100A84B29FEDCA0A20
:1054600028EE000ABCEEC00A10EE100A85B202E077
:105470004FF0FF3096E700BF20128DF80800E0B231
:105480008DF8090028128DF80A00E8B28DF80B009B
:1054900006F00100A0B102AA02214FF4EA70FFF762
:1054A00095F910B14FF0FF307CE70DF10A020221AF
:1054B0004FF49270FFF78AF910B14FF0FF3071E7A7
:1054C00006F00200A0B102AA02214FF4EC70FFF72F
:1054D0007DF910B14FF0FF3064E70DF10A020221AF
:1054E0004FF49470FFF772F910B14FF0FF3059E7A5
:1054F00006F00400A0B102AA02214FF4EE70FFF7FB
:1055000065F910B14FF0FF304CE70DF10A020221AE
:105510004FF49670FFF75AF910B14FF0FF3041E7A2
:1055200000203FE738B504460020009004F0010059
:1055300020B19DF8000040F03000009004F002001F
:1055400020B19DF8000040F00C00009004F0040031
:1055500020B19DF8000040F0030000906A46012150
:105560004FF4A470FFF732F938BD38B50446012C6A
:1055700001DA012402E0042C00DD0424601EC0B224
:1055800000906A46012140F24F10FFF71FF938BD25
:1055900038B50446052094FBF0F085B228128DF84A
:1055A0000000E8B28DF801006A4602214FF4EF7066
:1055B000FFF70CF938BD38B50446052094FBF0F030
:1055C00085B228128DF80000E8B28DF801006A4615
:1055D00002214FF4ED70FFF7F9F838BDF8B5054634
:1055E0000E464FF47A7095FBF0F000FB06F4200EA7
:1055F0008DF80000200C8DF80100200A8DF80200C3
:10560000E0B28DF803006A4604214FF4AE70FFF754
:10561000DDF8F8BD38B50446052094FBF0F084B2FF
:1056200020128DF80000E0B28DF801006A460221D8
:105630004FF4AD70FFF7CAF838BD38B50446052001
:1056400094FBF0F084B220128DF80000E0B28DF8E7
:1056500001006A4602214FF4AC70FFF7B7F838BD7D
:1056600038B5044614B94FF0FF3038BD6A460421FE
:105670004FF45870FFF7E7F810B14FF0FF30F4E740
:105680009DF8000000069DF8011040EA01409DF8D9
:10569000021040EA01209DF803100843206000201A
:1056A000E3E738B50446200E8DF80000200C8DF895
:1056B0000100200A8DF80200E0B28DF803006A466E
:1056C00004214FF45870FFF781F838BD38B504460F
:1056D00014B94FF0FF3038BD6A4604214FF47170A1
:1056E000FFF7B1F810B14FF0FF30F4E79DF800007C
:1056F00000069DF8011040EA01409DF8021040EAC2
:1057000001209DF80310084300EB8000800020601A
:105710000020E0E738B504461420B4FBF0F4200E76
:105720008DF80000200C8DF80100200A8DF8020091
:10573000E0B28DF803006A4604214FF47170FFF760
:1057400045F838BD38B5044604B320208DF8000074
:1057500028208DF8010030208DF8020038208DF8C7
:10576000030018E0B01A0020000048430000804603
:1057700000004046000000460000C0450000804593
:1057800000004045000000450000C044A322042161
:10579000684602F0F5FF6A46042140F69E20FFF7B6
:1057A00015F8FDF74FFC38BD38B5044664B1C0208C
:1057B0008DF80000C2208DF80100C4208DF8020091
:1057C000C6208DF8030004E08B220421684602F015
:1057D000D7FF6A46042140F69820FEF7F7FFFDF751
:1057E00031FC38BD3EB504466CB1FDA1D1E90020C5
:1057F0008968CDE9002002916A4609214FF497603B
:10580000FEF7E4FF3EBDF9A2D2E900109268CDE9AF
:10581000010200916A4609214FF49760FEF7D6FF16
:10582000F0E73EB5044602208DF80000CA208DF84E
:105830000100E3208DF8020009208DF803006A467C
:1058400004216820FEF7C2FFA3208DF8000004F0B9
:10585000400048B1C0208DF80100C8208DF802003A
:10586000C2208DF8030006E0A3208DF801008DF81A
:1058700002008DF8030004F4C07048B1C4208DF814
:105880000400CC208DF80500C6208DF8060006E047
:10589000A3208DF804008DF805008DF80600A320E4
:1058A0008DF807008DF808008DF809006A460A2176
:1058B00040F6A720FEF78AFF04F0030018B120206D
:1058C0008DF8000002E0D8208DF800006A46012122
:1058D00040F6B620FEF77AFF04F0200018B1012050
:1058E000FFF780FF02E00020FFF77CFF04F4C070A8
:1058F00008B304F4807060B1B2208DF800008B20F2
:105900008DF80100B6208DF802009B208DF8030071
:105910000BE0B0208DF8000080208DF80100B4204D
:105920008DF8020090208DF803006A46042140F6AD
:10593000A220FEF74BFF04F0010020B3F8208DF801
:1059400000006A4601214FF40B60FEF73FFFFA2189
:105950000720FFF719FD0720FFF7E4FD0120FFF7FF
:1059600004FE6420FFF714FE4FF4FA70FFF723FEE5
:10597000C821A148FFF732FE2820FFF74BFE0A207E
:10598000FFF75BFE08E0D8208DF800006A46012191
:105990004FF40B60FEF71AFF04F0020018B1D92093
:1059A0008DF8000002E0D8208DF800006A46012141
:1059B00040F23D70FEF70AFF04F0040018B1012028
:1059C000FFF7F2FE02E00020FFF7EEFE04F0100009
:1059D00018B10120FFF7B6FE02E00020FFF7B2FE8B
:1059E00044F0080085494881FDF72CFB00208349DD
:1059F000887304F0400018B10846807B801D8873CE
:105A000004F4C07020B17D48807B801D7B49887381
:105A100004F0140020B17948807B103077498873F6
:105A200004F0030020B17548807B001D7349887322
:105A300000203EBD01467148408908800020704723
:105A40002DE9F0410446E07800F0C006E07800F06F
:105A50003F05607800F0010098B1EF102846E91783
:105A600005EB5171C910A5EBC101491C01F0FF08FC
:105A70006248006820B16148414602683846904754
:105A800000BF607800F0080030B15C48406818B191
:105A9000B0115A4A516888470020BDE8F08110B51E
:105AA00086B0044656A207CA03AB07C357A207CA6B
:105AB0008DE80700012C09D0022C0ED103AA0B217E
:105AC00040F68220FEF782FE06B010BD6A460B212A
:105AD00040F68220FEF77AFEF6E74FF0FF30F3E75C
