:020000040800F2
:10000000C82B0020E1060008190500081B050008A0
:100010001F05000823050008270500080000000050
:100020000000000000000000000000002B05000898
:100030002D050008000000003557000809220008BF
:10004000FB060008FB060008FB060008FB0600088C
:10005000FB060008FB060008FB060008FB0600087C
:10006000FB060008FB060008FB060008FB0600086C
:10007000FB060008FB060008FB060008FB0600085C
:10008000FB060008FB060008FB0600080000000055
:10009000000000000000000000000000FB06000857
:1000A000FB060008FB060008FB060008FB0600082C
:1000B000FB060008FB060008FB060008FB0600081C
:1000C000FB060008FB060008FB060008FB0600080C
:1000D000FB060008FB060008EB23000800000000F8
:1000E000FB060008FB060008FB06000800000000F5
:1000F000000000000000000000000000FB060008F7
:1001000000000000FB060008FB060008FB060008D4
:1001100000000000000000000000000000000000DF
:10012000FB060008FB060008FB060008FB060008AB
:10013000FB060008000000000000000000000000B6
:10014000000000000000000000000000FB060008A6
:10015000FB060008FB060008FB060008FB0600087B
:10016000FB060008FB06000800000000000000007D
:10017000000000000000000000000000000000007F
:1001800000000000FB060008000000000000000066
:10019000FB060008FB06000800F002F800F040F83B
:1001A0000AA090E8000C82448344AAF10107DA45D2
:1001B00001D100F035F8AFF2090EBAE80F0013F0E4
:1001C000010F18BFFB1A43F0010318478C7300009E
:1001D000AC730000103A24BF78C878C1FAD852072F
:1001E00024BF30C830C144BF04680C6070470000B1
:1001F0000023002400250026103A28BF78C1FBD830
:10020000520728BF30C148BF0B6070471FB507F0C9
:100210009EF89DE8030005F0FBFB1FBD10B510BD67
:1002200005F087FC1146FFF7F1FF00F0E3F805F059
:10023000A5FC03B4FFF7F2FF03BC02F06BF800006B
:1002400013E09C48B0F900009B4948639B48B0F913
:10025000000088639A48B0F90000C8639948B0F973
:10026000000008641E2002F02BF8EAE72DED048B55
:100270006CE0DFED950A954890ED000A944800681F
:1002800002F0ADFDB0EE408ADFED8F0A914890EDAF
:10029000000A9148006802F0A2FDF0EE408ADFED0E
:1002A0008A0A8E4890ED000A8D48006802F097FD9A
:1002B000B0EE409A8B4890ED000AB8EEC00A30EEDE
:1002C000480A30EE680A30EE490ABDEEC00A10EE68
:1002D000100A00B277490880824890ED000AB8EE13
:1002E000C00A30EE480A30EE280A30EE090ABDEEA8
:1002F000C00A10EE100A00B270490880794890EDEB
:10030000000AB8EEC00A30EE080A30EE280A30EED5
:10031000490ABDEEC00A10EE100A00B26849088012
:10032000704890ED000AB8EEC00A30EE080A30EED0
:10033000680A30EE090ABDEEC00A10EE100A00B2DB
:1003400060490880142001F0BBFF00BF91E71CB595
:100350002CE0654A6549664802F0C7FB624A63497A
:10036000634802F0FCFD634A6349644802F095FB70
:10037000604A6149614802F0F2FD5B48B0F9000053
:100380005A49B1F90010CDE900105948B0F90030D0
:100390005848B0F900205848B0F900105748B0F953
:1003A000000002F093FE0A2001F08AFFD1E770B549
:1003B0000446002500BF05F095F905460823504A7C
:1003C0000021AFF2750004F06DFD06234D4A0021B7
:1003D000AFF2671004F066FD04234B4A0021AFF230
:1003E0009F1004F05FFD0A2004F0DCFF284605F0B2
:1003F0007DF970BD10B52DED048B632001F010FF69
:1004000002F0BFF84FF4A06000F08AF93F4801F015
:1004100091FF02F094FAB7EE000AB0EE408AB6EE11
:10042000000AF0EE408A9FED3A0AB0EE409A3C2076
:1004300005F09FFA264908603C2005F09AFA264903
:1004400008603C2005F095FA25490860F0EE491A4D
:10045000B0EE681AF0EE480A9FED1B0A1C480068CF
:1004600002F088FCF0EE491AB0EE681AF0EE480A85
:100470009FED150A1848006802F07CFCF0EE491A5E
:10048000B0EE681AF0EE480A9FED0F0A14480068B3
:1004900002F070FC03F053FA0A231E4A0021AFF267
:1004A000F10004F0FFFC03F06FFB0020BDEC048BB7
:1004B00010BD000018000020000001401A000020BC
:1004C0001C0000201E000020000000000C00002086
:1004D000240000201400002028000020100000202C
:1004E0002C0000202000002004000020020000203A
:1004F000000000200A000020080000200600002064
:10050000DC190020DC110020DC09002020A10700FC
:100510000AD7233CDC010020704700BFFEE700BF84
:10052000FEE700BFFEE700BFFEE770477047000030
:100530006048006840F080505E4908605E4800688E
:1005400040F440405C4908605A48383800685949CE
:10055000383908600846006808600846006840F4BA
:10056000805008605548091F0860081F006840F067
:100570008070091F086000BF4E484038006800F0D6
:1005800000700028F8D040F202704D4908604948D8
:100590003838006820F003004649383908600846BA
:1005A000006840F00200086000BF42483838006828
:1005B00000F00C000828F8D1704710B541480068D9
:1005C00040F470003F4908603A484038006840F005
:1005D0000100384940390860002036493839086040
:1005E000344840380068384908403249403908608A
:1005F0003648091D0860081F006820F48020091F84
:10060000086000202B4934390860FFF791FF4FF054
:1006100000602C498039086010BD70B500200021B1
:10062000022200230224234D383D2D6805F00C00E2
:1006300020B1042806D0082829D107E0244D254EF2
:10064000356028E0244D234E356024E0194D3C3DB3
:100650002D68C5F38053174D3C3D2D6805F03F04D0
:100660004BB91B4DB5FBF4F5124E3C3E3668C6F354
:10067000881605FB06F10F4D3C3D2D68C5F301457D
:100680006D1C6A00B1FBF2F5124E356003E0104DAF
:10069000104E356000BF00BF064D383D2D68C5F3D4
:1006A00003150E4E705D0B4D2D68C540094E35602B
:1006B00070BD000040380240007000401064010727
:1006C000003C024088ED00E0FFFFF6FE1030002401
:1006D0000024F4003000002000127A0034000020D2
:1006E0000948804709480047FEE7FEE7FEE7FEE7C6
:1006F000FEE7FEE7FEE7FEE7FEE7FEE70448054902
:10070000054A064B70470000BB0500089901000828
:10071000C8250020C82B0020C8270020C82700209B
:1007200032490143324A1160704770B500210023FD
:100730000F22C4781CB32E4C246804F4E064C4F582
:10074000E064C4F30721C1F10404E3B20A41447830
:100750009C40E1B28478144021430C07210E254CC3
:1007600005786155047804F01F050124AC40057834
:100770006D11AD0005F1E025C5F8004109E00478F0
:1007800004F01F050124AC401B4D0678761145F896
:10079000264070BD194A0A400243154B1B1F1A60C0
:1007A000704739B1124A121D12680243104B1B1DCB
:1007B0001A6006E00E4A121D126882430C4B1B1D84
:1007C0001A607047042808D14FF0E021096941F010
:1007D00004014FF0E022116107E04FF0E0210969C8
:1007E00021F004014FF0E022116170470000FA058A
:1007F0000CED00E000E400E080E100E080FFFF1F7E
:1008000010B504469848844208D10121084600F0FA
:1008100088FB0021012000F084FB76E093488442AD
:1008200008D10121022000F07CFB0021022000F011
:1008300078FB6AE08E48844208D10121042000F050
:1008400070FB0021042000F06CFB5EE089488442CC
:1008500008D10121082000F064FB0021082000F0ED
:1008600060FB52E08448844208D10121102000F04E
:1008700058FB0021102000F054FB46E07F488442E2
:1008800008D10121202000F04CFB0021202000F0A5
:1008900048FB3AE07A48844208D10121402000F028
:1008A00040FB0021402000F03CFB2EE075488442D4
:1008B00008D10121802000F034FB0021802000F0CD
:1008C00030FB22E07048844208D10121801500F0FD
:1008D00028FB0021A01500F024FB16E06B488442A1
:1008E00008D10121401500F01CFB0021601500F02B
:1008F00018FB0AE06648844207D10121001500F088
:1009000010FB0021201500F00CFB10BDF0B50A46CD
:1009100000210023002400BF3DE0012505FA01F37A
:10092000156805EA03049C4234D105684F0003268C
:10093000BE40B543056015794E00B54006683543A5
:1009400005601579012D02D01579022D16D1856823
:100950004F000326BE40B543856055794E00B54033
:10096000866835438560456801268E40B5434560FD
:10097000456896798E40B6B235434560C5684F00EC
:100980000326BE40B543C560D5794E00B540C66864
:100990003543C560491C1029BFD3F0BD4FF6FF7128
:1009A00001600021017141718171C171704708B509
:1009B0004FF480320092009A0A430092009AC2617A
:1009C000C161009AC261C2690092C269009208BD09
:1009D0000246002013690B400BB1012000E000200B
:1009E00070470146086980B270470246002053698B
:1009F0000B400BB1012000E0002070470146486920
:100A000080B2704701837047418370470AB1018308
:100A100000E0418370474161704742694A4042614A
:100A20007047F0B5002300244D07ED0E02FA05F3E0
:100A3000CE1000F1200555F826504E07F70E0F2670
:100A4000BE40B543CF1000F1200646F82750CE1027
:100A500000F1200555F8265045EA0304CE1000F1B8
:100A6000200545F82640F0BD000002400004024089
:100A700000080240000C0240001002400014024036
:100A800000180240001C02400020024000240240E6
:100A900000280240FA48006840F00100F849086068
:100AA0000020F74908310860F5480068F54908401A
:100AB000F3490860F448091D0860F448F04984319E
:100AC0000860F1481038091D0860ED48006820F4FE
:100AD0008020EB4908600020E9490C310860E849B2
:100AE0008C31086070470021E54A921C1170114654
:100AF0000870704710B501460022002300204A11FB
:100B0000012A02D1DE4C236808E0022A03D1DC4C22
:100B10007034236802E0DA4C7434236801F01F0259
:100B2000012494401C400CB1012000E0002010BDC5
:100B300038B5002000900024002500BF3120FFF7C9
:100B4000D9FF05460098401C00900098B0F5A04FD2
:100B500001D0002DF2D03120FFF7CCFF08B10124E5
:100B600000E00024204638BD01460020C44A106839
:100B700020F0F80040EAC10010607047C4490860E6
:100B800070470021BE4A703211701170012802D0E6
:100B900004280AD104E00121B94A7032117005E03D
:100BA0000521B74A7032117000E000BF00BF7047E6
:100BB000B8490860704770B5049C41EA8215012667
:100BC000C6EB530645EA0645054345EA0465AC4EC7
:100BD000361D356070BDAE490866704710B583019B
:100BE00043EA01731343A64C8434236010BDA84923
:100BF0008866704710B5830143EA016343EA0273D4
:100C00009F4C8834236010BDA14908677047A049F4
:100C1000C864704702460020994B0833186820F0DA
:100C2000EC6042EA01031843954B083318607047A3
:100C300002460020924B0833186820F0784042EAC0
:100C4000010318438E4B083318607047014600209B
:100C50008B4A0832106820F0030008431060704788
:100C600087480830006800F00C00704701460020FB
:100C7000834A0832106820F0F00008431060704783
:100C8000014600207E4A0832106820F4E0500843F4
:100C90001060704701460020794A0832106820F43D
:100CA000604040EAC10010607047F0B500210022AA
:100CB0000024022500260223714F08373F6807F001
:100CC0000C0121B1042905D0082937D105E0724F64
:100CD000076036E0714F076033E0694F3F1D3F68A2
:100CE000C7F38056664F3F1D3F6807F03F036EB164
:100CF0006A4FB7FBF3F7DFF888C10CF1040CDCF89E
:100D000000C0CCF3881C07FB0CF40CE0624FB7FB6F
:100D1000F3F7DFF86CC10CF1040CDCF800C0CCF385
:100D2000881C07FB0CF4564F3F1D3F68C7F3014773
:100D30007F1C7D00B4FBF5F7076002E0564F0760AB
:100D400000BF00BF4E4F08373F6807F0F0010909A8
:100D5000534F7A5C0768D7404760494F08373F6870
:100D600007F4E051890A4E4F7A5C4768D7408760A4
:100D7000434F08373F6807F46041490B484F7A5C9E
:100D80004768D740C760F0BD002100F44072B2F55B
:100D9000407F0AD13A4A0832116821F4F811414AD9
:100DA00002401143364A08321160354A70321268E7
:100DB000C0F30B031A43324B70331A607047354946
:100DC00044390860704733494039086070473649F4
:100DD0000860704701460020294A8C32106820F0D4
:100DE0001F004A1E1043264A8C321060704701468D
:100DF0000020234A8C32106820F4F8504A1E40EA42
:100E000002201F4A8C3210607047014600201C4AA5
:100E10008C32106820F4401008431060704701467F
:100E20000020174A8C32106820F4400008431060FC
:100E3000704701460020124A8C32106820F440307E
:100E400008431060704719490860704739B10C4A6F
:100E50003032126802430A4B30331A6006E0084A07
:100E6000303212688243064B30331A607047F9B152
:100E7000034A343212680243014B34331A601CE0D7
:100E800000380240FFFFF6EA103000240030002056
:100E900000004742800E47420024F40000127A000E
:100EA00044000020FFFCFF0F5C014742E011474275
:100EB0008F4A126882438E4B1A60704739B18C4A50
:100EC000121D126802438A4B1B1D1A6006E0884AF5
:100ED000121D12688243864B1B1D1A60704739B180
:100EE000834A0C3212680243814B0C331A6006E0CD
:100EF0007F4A0C32126882437D4B0C331A60704774
:100F000039B17B4A103212680243794B10331A60B0
:100F100006E0774A103212688243754B10331A602C
:100F2000704739B1724A243A12680243704B243B2D
:100F30001A6006E06E4A243A126882436C4B243BE6
:100F40001A60704739B16A4A203A12680243684B06
:100F5000203B1A6006E0664A203A12688243644BDE
:100F6000203B1A60704739B1614A1C3A126802434B
:100F70005F4B1C3B1A6006E05D4A1C3A12688243D4
:100F80005B4B1C3B1A60704739B1594A143A1268DE
:100F90000243574B143B1A6006E0554A143A126854
:100FA0008243534B143B1A60704739B1504A103A90
:100FB000126802434E4B103B1A6006E04C4A103A4E
:100FC000126882434A4B103B1A60704739B1484A55
:100FD0001C3212680243464B1C331A6006E0444A36
:100FE0001C3212688243424B1C331A60704739B17D
:100FF0003F4A2032126802433D4B20331A6006E01C
:101000003B4A203212688243394B20331A607047C2
:1010100039B1374A243212680243354B24331A60FF
:1010200006E0334A243212688243314B24331A607B
:10103000704739B12E4A2C32126802432C4B2C33A4
:101040001A6006E02A4A2C3212688243284B2C335D
:101050001A60704739B1264A303212680243244B75
:1010600030331A6006E0224A303212688243204B45
:1010700030331A607047012808D11D493C31096896
:1010800041F008011A4A3C32116007E018493C312E
:10109000096821F00801164A3C321160704739B1E5
:1010A000134A273A12780243114B273B1A7006E085
:1010B0000F4A273A127882430D4B273B1A7070472C
:1010C0000B484030006840F08070094940310860AA
:1010D000704701460020064A283A12680A400AB1C1
:1010E000012000E000207047014926390870704750
:1010F0003438024010B50446FA48844208D1012130
:101100001020FFF752FF00211020FFF74EFF57E09D
:10111000F548844209D101214804FFF735FF002139
:101120004FF40030FFF730FF4AE0F048844209D125
:1011300001218804FFF728FF00214FF48020FFF7EA
:1011400023FF3DE0EA48844209D10121C804FFF7AA
:101150001BFF00214FF40020FFF716FF30E0E548A9
:10116000844209D101210805FFF70EFF00214FF449
:101170008010FFF709FF23E0DF48844208D10121F6
:101180002020FFF712FF00212020FFF70EFF17E0BD
:10119000DA48844209D101218807FFF7F5FE0021D2
:1011A0004FF08040FFF7F0FE0AE0D548844207D1B7
:1011B00001214005FFF7E8FE00216005FFF7E4FE8E
:1011C00010BD2DE9FF4705460E460024A14600BF8D
:1011D000A046B08900B100BF2C8A24F44054F088A6
:1011E00004432C82AC8941F20C608443B08831897D
:1011F0000843718908430443AC81AC8A24F44074E9
:10120000B0890443AC826846FFF74FFDB54885427C
:1012100002D0B948854202D1DDF80C9001E0DDF83A
:101220000890A88900F4004040B109EBC90000EB28
:10123000091031684900B0FBF1F707E009EBC9007C
:1012400000EB091031688900B0FBF1F76420B7FBAF
:10125000F0F004012009642101FB1078A88900F452
:10126000004040B1322000EBC800B0FBF1F000F0CC
:101270000700044308E0322000EB08106421B0FBB3
:10128000F1F000F00F0004432C81BDE8FF874FF41C
:101290001651016000218180C18001810C214181B2
:1012A00000218181704710B502460020108A20F489
:1012B00070600B884C8823438C882343CC8823435D
:1012C0001843108210BD0021018041808180C180BF
:1012D000704721B1828942F40052828104E0828900
:1012E0004DF6FF731A4082817047028B02F47F42F1
:1012F0000283028B0A430283704721B1828942F440
:101300000042828103E08289C2F30E02828170472B
:1013100021B1828A42F40062828204E0828A4FF222
:10132000FF731A4082827047C1F3080282807047BF
:1013300001468888C0F308007047028A4FF6F073B0
:101340001A400282028A0A430282704721B18289CE
:1013500042F00202828104E082894FF6FD731A4056
:101360008281704782894FF2FF731A40828182899D
:101370000A4382817047028A4FF6DF731A40028265
:10138000028A0A430282704721B1028A42F48042F3
:10139000028204E0028A4BF6FF731A400282704711
:1013A000818941F001018181704721B1828A42F037
:1013B0000802828204E0828A4FF6F7731A40828222
:1013C0007047028BD2B20283028B42EA012202836F
:1013D000704721B1828A42F02002828204E0828A30
:1013E0004FF6DF731A408282704721B1828A42F041
:1013F0001002828204E0828A4FF6EF731A408282E2
:101400007047828A4FF6FB731A408282828A0A43AF
:101410008282704721B1828A42F00202828204E015
:10142000828A4FF6FD731A40828270471AB1838A0E
:101430000B43838202E0838A8B4383827047F0B53B
:101440000346002400260025002040F66A17B94212
:1014500000D100BF1846C1F3421401F01F06012756
:1014600007FA06F5012C01D10C3004E0022C01D161
:10147000103000E014301AB107682F43076002E013
:101480000768AF430760F0BD02460020B1F5007F5A
:1014900000D100BF13880B400BB1012000E00020F9
:1014A000704701F40072B2F5007F00D100BFCA435B
:1014B0000280704770B502460024002300250020FA
:1014C00040F66A16B14200D100BFC1F3421501F0E7
:1014D0001F03012606FA03F3012D13D19689334029
:1014E00017E00000001001400044004000480040A8
:1014F000004C0040005000400014014000780040C3
:10150000007C0040022D02D1168A334001E0968A09
:1015100033400C12012606FA04F41688344013B145
:101520000CB1012000E0002070BD10B500220023A6
:1015300040F66A14A14200D100BF0A12012494406F
:10154000A3B2DC43048010BD10B50446FE488442BB
:1015500008D101210846FFF728FD00210120FFF7EF
:1015600024FD9DE0B4F1804F08D101210846FFF72A
:101570000BFD00210120FFF707FD91E0F3488442B5
:1015800008D101210220FFF7FFFC00210220FFF714
:10159000FBFC85E0EE48844208D101210420FFF7DE
:1015A000F3FC00210420FFF7EFFC79E0E9488442D6
:1015B00008D101210820FFF7E7FC00210820FFF7F0
:1015C000E3FC6DE0E448844208D101211020FFF7DC
:1015D000DBFC00211020FFF7D7FC61E0DF488442EC
:1015E00008D101212020FFF7CFFC00212020FFF7A8
:1015F000CBFC55E0DA48844208D101210220FFF7F4
:10160000D4FC00210220FFF7D0FC49E0D5488442F9
:1016100009D101210804FFF7C8FC00214FF48030F4
:10162000FFF7C3FC3CE0D048844209D101214804C3
:10163000FFF7BBFC00214FF40030FFF7B6FC2FE0B2
:10164000CA48844209D101218804FFF7AEFC002179
:101650004FF48020FFF7A9FC22E0C548844208D15E
:1016600001214020FFF790FC00214020FFF78CFC77
:1016700016E0C048844208D101218020FFF784FC95
:1016800000218020FFF780FC0AE0BB48844207D19C
:1016900001218015FFF778FC0021A015FFF774FCED
:1016A00010BD00220288A84B98420ED0AC4B984245
:1016B0000BD0B0F1804F08D0A44B984205D0A44B7A
:1016C000984202D0A34B984204D14FF68F731A4030
:1016D0004B881A43A04B984207D0A04B984204D0A5
:1016E0004FF6FF431A400B891A4302804B68C362CE
:1016F0000B880385944B984202D0994B984201D1B4
:101700008B7A03860123838270474FF0FF3141605B
:1017100000210180018141808172704701858282B0
:1017200070470A46002101884FF68F731940114314
:101730000180704741627047C16270470146486A44
:1017400070470146088D704721B1028842F00202BD
:10175000028004E002884FF6FD731A400280704751
:1017600021B1028842F00402028004E002884FF6B0
:10177000FB731A400280704721B1028842F0800258
:10178000028004E002884FF67F731A40028070479F
:1017900002884FF6F7731A40028002880A430280DB
:1017A000704702884FF6FF431A40028002880A43BE
:1017B0000280704721B1028842F00102028004E0F9
:1017C00002884FF6FE731A400280704770B50024FD
:1017D00000220023058C4FF6FE7635400584028CEE
:1017E0008388048B4FF68F752C40B51E2C400D88D6
:1017F0002C43751E2A408D892A434D882A43524D19
:10180000A84202D0564DA84213D14FF6F7752A4090
:10181000CD892A434FF6FB752A408D882A434FF61F
:10182000FF652B404FF6FF552B400D8A2B434D8A09
:101830002B43838004838D684563028470BD70B53B
:10184000002400220023058C4FF6EF7635400584F6
:10185000028C8388048B48F6FF752C404FF6FF45B9
:101860002C400D884FF6FF7606EA05252C434FF6EF
:10187000DF752A408D8906EA05152A434D8806EA58
:1018800005152A43304DA84202D0354DA8421DD13E
:101890004FF67F752A40CD894FF6FF7606EA05158B
:1018A0002A434FF6BF752A408D8806EA05152A435C
:1018B0004FF6FF352B404FF2FF752B400D8A06EA9D
:1018C00085052B434D8A06EA85052B4383800483D7
:1018D0008D688563028470BD70B5002400220023EA
:1018E000058C4FF6FF6635400584028C8388848B17
:1018F0004FF68F752C404FF6FC752C400D882C430D
:101900004FF6FF552A408D894FF6FF7606EA0525EA
:101910002A434D8806EA05252A430B4DA84202D0EA
:101920000F4DA84238D14FF2FF752A40CD894FF6AE
:10193000FF7606EA05252A434FF6FF352A408D88B3
:1019400006EA05252A4319E0000001400004004092
:1019500000080040000C004000100040001400404F
:1019600000040140004001400044014000480140A3
:1019700000180040001C0040002000404EF6FF759B
:101980002B404DF6FF752B400D8A06EA05152B43BB
:101990004D8A06EA05152B43838084838D68C563D1
:1019A000028470BD70B5002200230024058C4EF621
:1019B000FF7635400584038C8488828B48F6FF755A
:1019C0002A404FF6FF452A400D884FF6FF7606EA7B
:1019D00005252A434DF6FF752B408D8906EA05350E
:1019E0002B434D8806EA05352B43FE4DA84202D015
:1019F000FD4DA84208D14BF6FF752C400D8A4FF6DD
:101A0000FF7606EA85152C43848082838D68056401
:101A1000038470BD002101804180818081608181CB
:101A2000C18101824182704770B5034600200024C5
:101A30001846183001258D40ACB21D8CA5431D847D
:101A400009B108290AD100EB610005684FF68F76CD
:101A5000354005600568154305600FE00D1FC5F3AF
:101A60004E052844056848F6FF7635400560056850
:101A70004FF6FF7606EA02263543056070BD4163E6
:101A8000704781637047C1637047016470470A46BD
:101A90000021018B4FF68F7319401143018370476A
:101AA0000A460021018B48F6FF7319404FF6FF7379
:101AB00003EA02231943018370470A460021818B00
:101AC0004FF68F7319401143818370470A460021F6
:101AD000818B48F6FF7319404FF6FF7303EA022328
:101AE0001943818370470A460021018B4FF6F77333
:101AF00019401143018370470A460021018B4FF2C0
:101B0000FF7319404FF6FF7303EA02231943018361
:101B100070470A460021818B4FF6F7731940114335
:101B2000818370470A460021818B4FF2FF73194071
:101B30004FF6FF7303EA02231943818370470A4675
:101B40000021018B4FF6FB7319401143018370474D
:101B50000A460021018B4FF6FF3319404FF6FF7301
:101B600003EA02231943018370470A460021818B4F
:101B70004FF6FB7319401143818370470A460021D9
:101B8000818B4FF6FF3319404FF6FF7303EA0223B0
:101B90001943818370470A460021018B4FF67F73FA
:101BA00019401143018370470A460021018BC1F39C
:101BB0000E014FF6FF7303EA0223194301837047B6
:101BC0000A460021818B4FF67F73194011438183B0
:101BD00070470A460021818BC1F30E014FF6FF7357
:101BE00003EA02231943818370470A460021018CCE
:101BF0004FF6FD7319401143018470470A460021D6
:101C0000018C4FF6F77319401143018470470A465F
:101C10000021018C4FF6DF7319404FF6FF7303EA82
:101C200002131943018470470A460021018C4FF6C4
:101C30007F7319404FF6FF7303EA021319430184BF
:101C400070470A460021018C4FF6FF5319404FF6AA
:101C5000FF7303EA02231943018470470A460021F7
:101C6000018C4FF2FF7319404FF6FF7303EA022312
:101C70001943018470470A460021018C4DF6FF7319
:101C800019404FF6FF7303EA02331943018470478A
:101C900030B5002301248C40A3B2048C9C430484FF
:101CA000048C02FA01F5ADB22C43048430BD30B58A
:101CB000002304248C40A3B2048C9C430484048C31
:101CC00002FA01F5ADB22C43048430BD828B4FF291
:101CD000FF331A408283828B4FF6FF7303EA01239E
:101CE0001A4382837047F0B50C4615460021002246
:101CF0000026078C4EF6FF7C07EA0C070784818BD1
:101D0000028C4FF6FF7707EA043640F6FF4739406A
:101D10004FF6FF7707EA052739434FF6FF7707EAC3
:101D20000337394345F6FF773A4046F480573A4344
:101D300081830284F0BD828B4FF6F3731A40828355
:101D4000828B0A4382837047F0B50C46154600210A
:101D500000220026078C4FF6FF6C07EA0C07078469
:101D6000818B028C4FF6FF7707EA04264FF60C773B
:101D700039404FF6FF7707EA03172F4339434FF2F5
:101D8000FF573A4046F480773A4381830284F0BD9E
:101D9000028B4FF2FF331A400283028B4FF6FF7320
:101DA00003EA01231A4302837047F0B50C46154637
:101DB000002100220026078C4FF6EF7C07EA0C0773
:101DC0000784018B028C4FF6FF7707EA041640F672
:101DD000FF4739404FF6FF7707EA033739434FF69D
:101DE000FF7703E0000001400004014007EA0527F7
:101DF00039434FF65F773A4046F010073A43018384
:101E00000284F0BD028B4FF6F3731A400283028BFB
:101E10000A4302837047F0B50C46154600210022A4
:101E2000068C4FF6FE773E400684018B028C4FF6FF
:101E30000C7631407E1C06EA03162E4331434FF6E2
:101E4000F576324044F00106324301830284F0BD4E
:101E500070B505460C46208850B92389A288618850
:101E60002846FFF7D8FFE1882846FFF7CBFF25E09B
:101E7000208804280AD12389A28861882846FFF790
:101E800094FFE1882846FFF783FF17E020880828A1
:101E90000AD12389A28861882846FFF755FFE18887
:101EA0002846FFF748FF09E02389A2886188284671
:101EB000FFF719FFE1882846FFF708FF70BD0021F2
:101EC00001804180012181800021C1800181704712
:101ED0002DE9F04105460C4600260127608808B927
:101EE000022600E00026A088012801D1022700E098
:101EF00001272088A0B92389A28861882846FFF796
:101F00008AFFE1882846FFF77DFF23893A4631465C
:101F10002846FFF74AFFE1882846FFF739FF13E01C
:101F20002389A28861882846FFF73FFFE188284679
:101F3000FFF72EFF23893A4631462846FFF76BFF0D
:101F4000E1882846FFF75EFFBDE8F0810146486B57
:101F500070470146886B70470146C86B7047014661
:101F6000086C70470A884B881A438B881A43CB88C1
:101F70001A430B891A434B891A438B891A43A0F8D9
:101F8000442070470021018041808180C18001810F
:101F900041818181704731B1B0F8442042F4004260
:101FA000A0F8442005E0B0F84420C2F30E02A0F8E7
:101FB0004420704721B1828842F00402828004E00C
:101FC00082884FF6FB731A408280704721B1828865
:101FD00042F00102828004E082884FF6FE731A40CC
:101FE000828070471AB183890B43838102E0838921
:101FF0008B43838170478182704702460020138A99
:102000000B400BB1012000E000207047CA43028260
:10201000704730B50246002000230024158A05EAE7
:102020000103958905EA010413B10CB1012000E018
:10203000002030BDCA430282704741EA0203A0F883
:10204000483070471AB183890B43838102E083894A
:102050008B438381704721B1828842F008028280DD
:1020600004E082884FF6F7731A4082807047018936
:102070004FF6F8721140018170470A46002101892C
:102080004FF68F73194011430181704730B50446F4
:102090000D4629462046FFF7F0FF208940F0070053
:1020A000208130BD2DE9F04104460D4616461F46FD
:1020B000602D06D13B46012231462046FFF775FED2
:1020C00005E03B46012231462046FFF7A4FE2946A3
:1020D0002046FFF7D2FF208940F007002081BDE8AD
:1020E000F08130B50C4600210189C9B24FF6FF7569
:1020F00005EA0325154325432943018130BD2DE918
:10210000F04105460E4617469846002443463A4697
:1021100031462846FFF7E5FF2C894FF6F87004405A
:1021200044F007044FF68F70044044F070042C8193
:10213000BDE8F081F0B504460D4616461F463B4605
:10214000324629462046FFF7CCFF208940F48040E4
:102150002081F0BD82884FF68F731A40828082887A
:102160000A438280704702894FF6F8731A40028151
:1021700002890A430281704702894FF67F731A4031
:10218000028102890A4302817047F0B50C46154668
:102190001E460021002200230189028B038C4FF68A
:1021A000F877394021434FF6FC473A4040F2011797
:1021B0003A434FF6DD773B404FF6FF7707EA0617C5
:1021C0002F433B43018102830384F0BD21B1828808
:1021D00042F08002828004E082884FF67F731A40CA
:1021E00082807047A0F850107047000010B501F0D1
:1021F0000FFC10BD10B501F050FC10BD10B5044629
:10220000204603F097F910BD10B53E48007801282C
:1022100005D101F0AAFB01F0EEFC01F0C1FB10BDFD
:1022200070B504466FF00400FEF7CCFAE11704EB3A
:102230005171C1F3C701344A1170E11704EB5171B8
:10224000CD1041F2883045430520304908804FF0D9
:10225000E020006940F002004FF0E02108610846EC
:102260004561006940F00100086170BD2DE9F0474B
:10227000074600264FF0E020D0F81490224800785E
:1022800007FB00F8FFF7B2FF4FF0E020856911E08F
:102290004FF0E0208469AC420CD0AC4202D2281B43
:1022A000064403E0A9EB04002844064425464645BD
:1022B00000D300E0ECE700BFFFF79CFFBDE8F0872C
:1022C00070B504460F480078A0B11148007888B96D
:1022D0000E480088844206DB0C48008894FBF0F529
:1022E0002846FFF78BFF0948008894FBF0F100FBBC
:1022F000114084B24FF47A7104FB01F0FFF7B6FF8E
:1023000070BD0000BE0000205400002056000020D8
:10231000B100002000BF704700BF524A128802F08F
:102320004002002AF9D0C2B24E4B1B1D1A807047E2
:1023300000BF704710B588B0044601210846FEF77B
:1023400085FD01214804FEF7CAFD07220221464807
:10235000FEF767FB072203214348FEF762FB0C20D0
:10236000069002208DF81C008DF81D0000208DF8CD
:102370001E0001208DF81F0006A93B48FEF7C6FA93
:1023800002940020ADF80C00ADF80E00ADF810007E
:10239000ADF814000C20ADF8120002A93148FEF788
:1023A00010FF012240F225512E48FFF748F8012185
:1023B0002C48FEF78EFF40212A48FFF772F80122D1
:1023C00040F225512748FFF73AF826208DF80400FF
:1023D00003208DF805008DF8060001208DF8070018
:1023E00001A8FEF7A2F908B010BD10B540F22551C2
:1023F0001C48FFF75FF810B31A48FEF799FFC4B204
:102400001A48008800F40040C8B91848008800F451
:10241000804060B10A2C03D000201449088020E0DD
:102420001248008840F400401049088019E00D2C43
:1024300006D10E48008840F480400C49088010E026
:102440000A480088C0F30D0009490C540748008869
:10245000401C0649088008460088C72801DD002086
:10246000088010BD00440040000002405C000020D5
:10247000E019002030B58BB004460D460121084616
:10248000FEF73EFD01210846FEF7E0FC012208218F
:102490004E48FEF7C6FA012209214C48FEF7C1FA60
:1024A00001220A214948FEF7BCFA01220B214748C4
:1024B000FEF7B7FA4FF47060099002208DF82800FB
:1024C0008DF8290000208DF82A0001208DF82B00BE
:1024D00009A93E48FEF71AFAA8B2ADF81800002084
:1024E000ADF81A000794ADF820008DF8220006A977
:1024F0003748FFF7D6F86020ADF804000120ADF8AA
:1025000006000420ADF8080040F2DC5003900020E3
:10251000ADF810000820ADF812004001ADF814002D
:102520000020ADF8160001A92948FFF74FF901A9CD
:102530002748FFF784F901A92548FFF7CDF901A93C
:102540002348FFF72FFA08212148FFF7CCFA08218A
:102550001F48FFF7D1FA08211D48FFF7DAFA0821D2
:102560001B48FFF7DFFA01211948FFF705F90121A0
:102570001748FFF71FF901211548FFF70CFD0BB0B5
:1025800030BD10B5632144F62060FFF773FF4FF4B0
:10259000FA600F4948638863C863086440F6B8303E
:1025A000FFF78EFE4FF47A70094948638863C86369
:1025B000086440F6B830FFF783FE40F24C4004490F
:1025C00048638863C863086410BD000000000240CF
:1025D000000001401CB501210220FEF737FC30202D
:1025E000009001208DF8040000208DF806000320E3
:1025F0008DF8050001208DF8070069468848FEF730
:1026000085F90120874908608749C1F894021CBDFB
:1026100010B58348006820F440608149086008468E
:10262000006840F48060086001207E49091D086050
:102630007D49C1F890020420FFF718FE0020794977
:10264000091D08600420FFF711FE00207649C1F83B
:10265000900210BD10B57248006820F440607049C7
:1026600008600846006840F48060086000206D49FA
:1026700008606D49C1F894020420FFF7F7FD0120BE
:10268000684908606849C1F894020420FFF7EEFD2C
:1026900010BD10B500246248006820F44060604915
:1026A000086008460068086001205E49091D08604E
:1026B000FFF7DCFD01205C49C1F89002FFF7D6FD71
:1026C00007E0601CC4B2FA2C03DDFFF7C3FF012052
:1026D00010BD54487C3800680028F2D15149086088
:1026E00000BFF5E710B500204E4908604C4800686F
:1026F00020F440604A4908600846006840F4806061
:10270000086000204849C1F894020220FFF7AEFD9E
:102710000120444908600220FFF7A8FD002042493B
:10272000C1F8900210BD10B500203E4908603C4839
:10273000006820F440603A4908600846006840F4A8
:102740008060086001203849C1F894020220FFF738
:102750008DFD0120334908600220FFF787FD00202E
:102760003149C1F8900210BD70B504462C4800688C
:1027700020F440602A4908600846006840F4806000
:102780000860002027490860002517E0E009254976
:10279000091D08606006040E0220FFF767FD012096
:1027A0002149C1F890020220FFF760FD00201D4979
:1027B00008600220FFF75AFD681CC5B2082DE5DB52
:1027C00070BD70B5054600241548006820F44060CF
:1027D00013490860084600680860002616E00020DB
:1027E000104908600220FFF741FD01200E49C1F8A1
:1027F00090026006040E0B487C38006808B1601C2B
:10280000C4B20120FFF732FD701CC6B2082EE6DB11
:1028100015B9FFF788FF01E0FFF764FF204670BDA0
:1028200000040240908240420080404270B505465C
:102830000C46FFF7EDFED020FFF796FFFFF729FFCC
:1028400018B1FFF707FF012070BD2846FFF78CFF86
:10285000FFF71FFF2046FFF787FFFFF71AFF18B1AA
:10286000FFF7F8FE0120EFE7FFF7F4FE0020EBE7AB
:1028700070B504460025BC2C01DB012510E0622C5C
:1028800001DB02250CE02A2C01DB032508E0142CD7
:1028900001DB042504E00A2C01DB052500E0062508
:1028A00029461A20FFF7C2FF70BD70B50446B4F583
:1028B0007A7F01DD4FF47A74042C00DA04244FF49B
:1028C0007A7090FBF4F0401EC5B229461920FFF73C
:1028D000ADFF0546264604EBD671C1F34F00FFF766
:1028E000C7FF70BD70B50446FFF792FED020FFF71A
:1028F0003BFFFFF7CEFE2046FFF736FFFFF7C9FE8E
:10290000FFF786FED120FFF72FFFFFF7C2FE002062
:10291000FFF757FF0546FFF79DFE284670BD10B52F
:102920000446E006010E1C20FFF780FF10BD10B525
:102930000446E006010E1B20FFF778FF10BD10B51E
:10294000FFF748FE80216B20FFF770FF6420FFF740
:10295000B7FC00216B20FFF769FF0120FFF7E7FFBD
:102960000020FFF7DCFF7D20FFF79FFF00213820CC
:10297000FFF75CFF00216A20FFF758FF00212320AA
:10298000FFF754FF80213720FFF750FF7520FFF736
:10299000A9FF0446682C0BD101216B20FFF746FFED
:1029A00000216C20FFF742FFFA20FFF77EFF01E0D5
:1029B000012010BD0020FCE72DE9F04106460F463E
:1029C00014461D46FFF724FE002141EA4601C8B225
:1029D000FFF7CAFEFFF75DFE20B1FFF73BFE0120C7
:1029E000BDE8F0813846FFF7BFFEFFF752FEFFF764
:1029F0000FFE012101EB4601C8B2FFF7B5FEFFF75C
:102A000048FE0DE0012C04D10020FFF7DAFE28700B
:102A100003E00120FFF7D5FE2870601EC4B26D1CD4
:102A2000002CEFD1FFF716FE0020D9E710B52DEDF1
:102A3000088B82B001AB022241216820FFF7BCFF66
:102A40009DF805009DF8041040EA012004B22046DC
:102A500004F0C3F841EC1B0B9FED6B0B53EC102BF8
:102A600003F034FF41EC1A0B9FED690B53EC102B74
:102A700003F078FE41EC190B03F042FE08EE100A59
:102A80009FED650A28EE000ABDEEC00A10EE100A9E
:102A900000B202B0BDEC088B10BD2DE9FC4104462C
:102AA0000D4616466B46062243216820FFF784FF39
:102AB0000746BFB99DF801009DF8001040EA0120CB
:102AC00000B220809DF803009DF8021040EA01202A
:102AD00000B228809DF805009DF8041040EA01200E
:102AE00000B230803846BDE8FC812DE9FC41044647
:102AF0000D4616466B4606223B216820FFF75CFF19
:102B00000746BFB99DF801009DF8001040EA01207A
:102B100000B220809DF803009DF8021040EA0120D9
:102B200000B228809DF805009DF8041040EA0120BD
:102B300000B230803846BDE8FC812DE9FE430446F2
:102B40000D4617461E46DDE90A89200A8DF8000069
:102B5000E0B28DF80100280A8DF80200E8B28DF885
:102B60000300380A8DF80400F8B28DF80500300A29
:102B70008DF80600F0B28DF807004FEA18208DF8A6
:102B8000080008F0FF008DF809004FEA19208DF8C1
:102B90000A0009F0FF008DF80B000C226946A12005
:102BA00000F04AF8BDE8FE832DE9F04105460E46E7
:102BB00017469846FFF72CFD002141EA4501C8B2AF
:102BC000FFF7D2FDFFF765FD20B1FFF743FD0120C0
:102BD000BDE8F0813046FFF7C7FDFFF75AFD00243E
:102BE0000CE018F80400FFF7BFFDFFF752FD18B125
:102BF000FFF730FD0120EBE7601CC4B2BC42F0DB04
:102C0000FFF728FD0020E3E70000000000407540CA
:102C1000A4703D0AD74342400000C84210B50446A4
:102C200000BF40215248FEF72FFC0028F9D0214672
:102C30004F48FEF779FB10BDF0B589B006460F4648
:102C400015461C2D01DD09B0F0BD002101AAE81CCC
:102C5000115488208DF804008DF805608DF8065019
:102C6000002405E0395DE01C01AA1154601CC4B2C7
:102C7000AC42F7DB00240AE001A9E81C085C095D0E
:102C80000844C1B201AAE81C1154601CC4B2E81C7B
:102C90008442F1DB002405E001A9085DFFF7BEFFD7
:102CA000601CC4B2281D8442F6DB00BFCBE72DE9CF
:102CB000F04F87B004460D4616461F46DDE911ABBE
:102CC000DDF840904FF0000806E000200DF8080005
:102CD00008F1010000F0FF08B8F11C0FF5DB200A35
:102CE0008DF80000E0B28DF80100280A8DF802008E
:102CF000E8B28DF80300300A8DF80400F0B28DF8C8
:102D00000500380A8DF80600F8B28DF807004FEA82
:102D100019208DF8080009F0FF008DF809004FEA2E
:102D20001A208DF80A000AF0FF008DF80B004FEA18
:102D30001B208DF812000BF0FF008DF81300139884
:102D4000000A8DF814001398C0B28DF8150014987D
:102D5000000A8DF816001498C0B28DF817001C22D6
:102D60006946AF20FFF768FF07B0BDE8F08F0000AD
:102D70000044004080ED000A9FEDC32A80ED012A47
:102D80009FEDC12A80ED022A9FEDBF2A80ED032A24
:102D90009FEDBD2A80ED042A9FEDBC2A80ED052A17
:102DA0009FEDB92A80ED062AC0ED070A80ED081ACA
:102DB000C0ED091A9FEDB42A80ED0A2A9FEDB22AD0
:102DC00080ED0B2A9FEDB02A80ED0C2A9FEDAE2AF4
:102DD00080ED0D2A9FEDAC2A80ED0E2A704710B5CC
:102DE0002DED0A8B0446B0EE408AF0EE608AC4ED09
:102DF000008A94ED000A30EE480A84ED010A94ED51
:102E0000010A10EE101A084604F030FA41EC1C0BCF
:102E10009FED9F0B53EC102B03F032FF41EC1A0B8C
:102E200094ED040A10EE101A084604F01FFA41EC63
:102E30001B0B53EC1A2B03F095FC41EC190B03F020
:102E40005FFC206194ED040AD4ED050AB4EEE00ABB
:102E5000F1EE10FA04DD94ED050A84ED040A10E0A9
:102E600094ED040AD4ED050AF1EE600AB4EEE00A2E
:102E7000F1EE10FA05D294ED050AB1EE400A84EDA8
:102E8000040A94ED010AD4ED030A30EE600A10EE54
:102E9000101A084604F0EAF941EC1A0B9FED7C0B7E
:102EA00053EC102B03F012FD41EC190B03F028FC3E
:102EB000A06194ED010A10EE101A084604F0D6F94C
:102EC00041EC190B9FED740B53EC102B03F0D6FF64
:102ED0000FD394ED010A10EE101A084604F0C6F95B
:102EE00041EC190B9FED6E0B53EC102B03F08CFE95
:102EF00024D294ED070AD4ED010A20EE200A84EDD5
:102F00000A0A94ED080AD4ED040A20EE200A84EDA2
:102F10000B0A94ED090AD4ED060A20EE200A84ED8E
:102F20000C0A94ED0A0AD4ED0B0A30EE200AD4ED17
:102F30000C0A30EE200A84ED0D0A03E094ED0E0A2F
:102F400084ED0D0A94ED010A84ED030A94ED0D0A57
:102F500084ED0E0A94ED0D0ABDEC0A8B10BD70B520
:102F60002DED048B04460D46164620884E494F4AE7
:102F7000B2F9002021F8120029884D484B4AB2F9D5
:102F8000002020F8121030884A49484AB2F900203F
:102F900021F812004548B0F90000401C0A2190FBBE
:102FA000F1F201FB120000B2404908803E48B1F93D
:102FB000001030F9110040490968081A3E490860BC
:102FC0003B483A49B1F9001030F911003B49096812
:102FD000081A3A49086037483449B1F9001030F905
:102FE000110037490968081A35490860B4F900002A
:102FF00031490968084430490860B5F900002F4993
:10300000096808442D490860B6F900002C49096890
:1030100008442B4908602848006803F0DEFD41ECB5
:10302000190B9FED280B53EC102B03F04FFC41ECD8
:10303000180B03F0A3FD00B220802048006803F0C5
:10304000CCFD41EC190B9FED1F0B53EC102B03F043
:103050003DFC41EC180B03F091FD00B228801848AC
:10306000006803F0BAFD41EC190B9FED160B53EC11
:10307000102B03F02BFC41EC180B03F07FFD00B28A
:103080003080BDEC048B70BD000000000000C84221
:103090007B14AE47E17A943F7B14AE47E17A843FDC
:1030A0007B14AE47E17A84BFA81A0020600000209C
:1030B000BC1A0020D01A0020640000206800002004
:1030C0006C00002000000000000024402DE9F047C3
:1030D0002DED108B04460D4616461F46DDE9188976
:1030E00007FB07F108FB081109FB091003F075FD48
:1030F00041EC1C0BB0EE4C0AF0EE6C0A03F0B8F990
:10310000B0EE40BAF0EE60BA51EC1B0B03F0F8FAE7
:1031100008EE100A00EE107AB8EEC00AC0EE080AF7
:10312000BDEEE00A10EE100A07B200EE108AB8EE0B
:10313000C00AC0EE080ABDEEE00A10EE100A0FFA4F
:1031400080F800EE109AB8EEC00AC0EE080ABDEE94
:10315000E00A10EE100A0FFA80F9FE4890ED000A1E
:10316000FD48D0ED000A20EE200AFC48D0ED000A10
:10317000FB4890ED001A00EEC10AF0EE000A20EEC6
:10318000200AF0EE408AF54890ED000AF148D0EDB3
:10319000000A20EE200AF248D0ED000AEE4890ED39
:1031A000001A00EE810AF0EE000A20EE200AB0EECE
:1031B000409AEA4890ED000A20EE000AE548D0ED7A
:1031C000000A90ED001A00EEC10AE548D0ED000AB1
:1031D00090ED001A00EEC10ADF48D0ED000A90ED34
:1031E000001A00EE810AF0EE409A00EE108AB8EE66
:1031F000C00A60EE290A00EE109AB8EEC00A40EE4E
:10320000490AB0EE60AA00EE109AB8EEC00A60EE6D
:10321000280A00EE107AB8EEC00A40EE690AF0EE15
:1032200060AA00EE107AB8EEC00A60EE090A00EE5D
:10323000108AB8EEC00A40EE680AB0EE60DAC948FB
:1032400090ED000AC848D0ED000A0AEE200AC548F1
:1032500080ED000AC54890ED000AC348D0ED000A91
:103260000AEEA00AC14880ED000AC14890ED000AAC
:10327000BD48D0ED000A0DEE200ABD4880ED000AE1
:1032800000EE104AB8EEC00ABA48D0ED000A00EECF
:103290008A0AB448D0ED000A30EE200ABDEEC00A1A
:1032A00010EE100A04B200EE105AB8EEC00AB1488F
:1032B000D0ED000A00EEAA0AAC48D0ED000A30EECC
:1032C000200ABDEEC00A10EE100A05B200EE106A28
:1032D000B8EEC00AA748D0ED000A00EE8D0AA44857
:1032E000D0ED000A30EE200ABDEEC00A10EE100A42
:1032F00006B2984890ED000AF1EE400A00EE104A3E
:10330000B8EEC00A60EE800A954890ED001A00EE13
:10331000105AF8EEC01AB0EE600A01EE610A8E484B
:1033200090ED001A00EE906AF8EEE00A01EE600AF5
:10333000914890ED001A8948D0ED000A40EE010A4C
:10334000C0ED000AD0ED000A00EE104AB8EEC00A47
:1033500060EE800A824890ED001A00EE106AF8EEE6
:10336000C01AB0EE600A01EE210A7B4890ED001A07
:1033700000EE905AF8EEE00A01EE600A7E4890ED09
:10338000001A7448D0ED000A40EE010AC0ED000AB0
:103390007248D0ED000A00EE105AB8EEC00A60EE96
:1033A000800A6C4890ED001A00EE106AF8EEC01A20
:1033B000B0EE600A01EE610A674890ED001A00EE77
:1033C000904AF8EEE00A01EE200A6B4890ED001AF0
:1033D0006348D0ED000A40EE010AC0ED000A5F48E4
:1033E000D0ED000A00EE106AB8EEC00A60EE800A66
:1033F000584890ED001A00EE105AF8EEC01AB0EEE0
:10340000600A01EE210A564890ED001A00EE904A3B
:10341000F8EEE00A01EE600A574890ED001A4E48B7
:10342000D0ED000A40EE010AC0ED000A4B4890EDD5
:10343000000A20EE000A4748D0ED000A90ED001A7D
:1034400000EE810A4648D0ED000A90ED001A00EE29
:10345000810A4148D0ED000A90ED001A00EE810A81
:1034600010EE101A084603F001FF41EC1C0BB0EE01
:103470004C0AF0EE6C0A02F0FBFFB0EE40BAF0EE40
:1034800060BA51EC1B0B03F03BF908EE100A33480D
:1034900090ED000AC0EE080AC0ED000A2D4890ED3C
:1034A000000AC0EE080AC0ED000A2D4890ED000A9F
:1034B000C0EE080AC0ED000A274890ED000AC0EEF1
:1034C000080AC0ED000A234890ED000AF8EE000A51
:1034D00020EE200A2048D0ED000A20EE200A1F48E6
:1034E000D0ED000AB0EE001A60EE810A1C4890EDA3
:1034F000001A00EE810A10EE101A084603F0B6FE1C
:1035000041EC1B0BB0EE4B0AF0EE6B0A02F09CFB99
:10351000B0EE40CAF0EE60CA9FED180B53EC102BD2
:1035200051EC1C0B03F0ACFB41EC1E0B03F0E8F874
:1035300014490860094890ED000A20EE000A054889
:10354000D0ED000A90ED001A00EEC10A0448D0ED5B
:10355000000A19E080000020880000207C00002084
:10356000840000208C0000207400002090000020C7
:103570009400002070000020780000204B5986380D
:10358000D6A54C401000002090ED001A00EEC10AB4
:103590005048D0ED000A90ED001A00EE810A10EEBE
:1035A000101A084603F062FE41EC1C0B4A4890EDED
:1035B000000A4848D0ED000A20EE200A4748D0ED26
:1035C000000A474890ED001A00EE810AF0EE000A6A
:1035D00020EE200A10EE101A084603F047FE41ECD8
:1035E0001E0BB0EE4C1AF0EE6C1AB0EE4E0AF0EE76
:1035F0006E0A02F045FEB0EE40BAF0EE60BA1FED82
:10360000210B53EC102B51EC1B0B03F039FB41EC5D
:103610001F0B03F075F833490860304890ED000A3D
:1036200020EE000A2E48D0ED000A90ED001A00EEC0
:10363000810A2948D0ED000A90ED001A00EEC10A77
:103640002448D0ED000A90ED001A00EEC10A10EEF9
:10365000101A084603F00AFE41EC1E0B204890EDBC
:10366000000A1D48D0ED000A20EE200A1B48D0EDCC
:10367000000A184890ED001A00EE810AF0EE000AE8
:1036800020EE200A10EE101A084603F0EFFD41EC80
:103690001B0BB0EE4E1AF0EE6E1AB0EE4B0AF0EEC7
:1036A0006B0A02F0EDFDB0EE40CAF0EE60CA1FED0D
:1036B0004D0B53EC102B51EC1C0B03F0E1FA41ECD9
:1036C0001F0B03F01DF808490860BDEC108BBDE826
:1036D000F087000088000020840000207C0000208B
:1036E000800000200C000020140000207CB5002584
:1036F00014E06946284601F013FE064666B9F7480D
:1037000050F8254044B1012C06D0D4E9020100EB69
:10371000810060640198A064681CC5B23F2DE8D99F
:103720007CBD002400BF02E0282001F003FFEC482C
:1037300000780028F8D0EB4800686421B0FBF1F075
:10374000E84908600846006828B90020E649087082
:10375000FF2001F027FE00BF01F0C4FF0446E3484C
:103760000068E34908600020E0490860204601F055
:10377000BDFFDF480068DB490968B0FBF1F0C0F12C
:103780006400D949087002F016F8FFF7AFFF142063
:1037900001F0D0FEE0E700B587B0032000218022D1
:1037A000D44BCDE90132CDE903104FF6FE703E2334
:1037B000D14A0090AFF2950001F0CBFB06AACFA151
:1037C0003E2001F02FFD07B000BD002400BF00BF68
:1037D00001F088FF0446C5480068401CC3490860E2
:1037E000204601F083FF01F0E5FFF1E700B587B067
:1037F000032000218022C54BCDE90132CDE9031021
:103800004FF6FF703F23C24A0090AFF2410001F033
:10381000A0FB06AABFA13F2001F004FD07B000BD38
:1038200004E0002200F8012B4A1E91B20029F8D1D1
:10383000704770B5C821BB48FFF7F2FF00230FE0C7
:10384000581C85B203EB8300B64901EB800405EBFD
:10385000850001EB8006002020706660581C83B252
:10386000092BEDD303EB8300AE4901EB800400206C
:10387000207060600846AC49086070BD70B54FF4B8
:103880007C71AA48FFF7CCFF4FF480719348FFF793
:10389000C7FF002413E0601CC5B2C4EBC40000EBFA
:1038A0004000A24901EB8003C5EBC50000EB4000DE
:1038B00001EB80065E619EA0D864601CC4B20B2C34
:1038C000E9D3C4EBC40000EB4000984901EB80034E
:1038D0000020586196A0D86400209649086093485B
:1038E0009549086070BD0021944A1170002004E0E1
:1038F0000021934A1154411CC8B20828F8D3002172
:10390000904A1170904A1170904A1160904A11606B
:10391000704700208F4908608F4908708F490870F0
:103920008F4908708F4908708F4908606F49086097
:103930006F4908606B49086069490870704710B5A5
:1039400001F034FFFFF7E5FFFFF7CDFFFFF796FF2C
:10395000FFF76FFF00F0EAFE01F0E1F9FFF746FF25
:10396000FFF719FF01F023FF10BD7E480078012802
:1039700008D179480078FF2804D277480078401CA5
:1039800075490870704779496C4A1278885C6C49AF
:10399000095C764A515C01EBC0016B4A11707047BB
:1039A00010B500246F480078012830D101F09AFE4C
:1039B00004466948007820B167480078401E66498F
:1039C000087065480078F8B964480078E0B9FFF7F6
:1039D000DAFF42485C49097850F821005B490860E9
:1039E000594800785749097888420DD057480068EF
:1039F000806B401C5549096888635B480068401C1F
:103A00005949086001F08EFE204601F06FFE10BD9E
:103A100010B5002453480078012811D101F062FE4E
:103A200004464D48007840B94C480078FF2804D23D
:103A30004A480078401C49490870204601F056FE6B
:103A400010BD10B5002401F04DFE04464248007838
:103A5000F8B942480078E0B9FFF795FF1F483A49A6
:103A6000097850F82100394908603748007835490D
:103A7000097888420DD035480068806B401C334976
:103A80000968886338480068401C3749086001F0BD
:103A900042FE204601F02AFE10BD10B50024314838
:103AA000007801286FD101F01DFE04462B480078F4
:103AB00080B12A480078401E2849087008460078DE
:103AC00048B92548007838B9204601F00FFEFFF7C5
:103AD000B8FF58E054E04FE04AE00000FC1F00202F
:103AE000B0000020A8000020A4000020C00000209A
:103AF000AC000020FC1B0020F81D002075432F4F58
:103B0000532D49492053746174000000FC1D0020AE
:103B1000F81F002075432F4F532D49492049646CED
:103B200065000000E41A00209C000020FC2000201A
:103B30003F000000D0000020C8000020B500002099
:103B4000B6000020B3000020B4000020CC0000200C
:103B5000C4000020DC000020B1000020B2000020E2
:103B6000BF000020BE000020980000206273000803
:103B7000204601F0BBFD06E0204601F0B7FD02E063
:103B8000204601F0B3FD10BD10B5EB48007890B9A8
:103B9000FFF7F9FEE9480078E9490870E948E74984
:103BA000097850F82100E849086008460068E749AC
:103BB000086001F09EFD10BD10B50024022001F048
:103BC000B9FC01F08FFD04460020E1490860204661
:103BD00001F08CFD142001F0ADFC01F083FD0446E2
:103BE000DB480068DB4908600120DB49087020469B
:103BF00001F07CFD10BD70B5002601F0B4FE01F0AF
:103C000071FD0646D5480068401CD449086030461E
:103C100001F06CFDC8480078012853D1D0480078E5
:103C200020B1012804D0022809D103E001250BE0CE
:103C3000002509E001250120C949087004E001259B
:103C40000020C749087000BF00BF05B970BDC54856
:103C5000046833E001F046FD0646E06A50B3E06ACE
:103C6000401EE062E06A28BB94F8300000F03700A4
:103C700040B114F8300F00F0C800207001206070CF
:103C8000303C02E0002084F8310094F8300000F06D
:103C9000080078B93434A078B34909780843B249A8
:103CA00008702078B149085C6178084314F8341929
:103CB000AE4A50546469304601F018FD94F8320061
:103CC0003F28C7D100BFC1E740F2231070477047BB
:103CD00010B590F8342001F10B039B5C90F835404F
:103CE000A34301F10B04A35423469B5C23B98B7AB5
:103CF00090F83640A3438B7210BD2DE9F04F054676
:103D00000F4690469946A87A99490E5C05F10B003A
:103D1000805D11F800B00BEBC60000F0FF0A894887
:103D200050F82A4000202034E0602760207C20EA00
:103D30000800207484F81190207C203C00F00800DA
:103D400068B994F8360088490978084386490870AC
:103D50008648805D94F83510084384498855294683
:103D60002046FFF7B5FF5046BDE8F08F10B5774A03
:103D70001268D061754A126892F8343000F10B0273
:103D8000D25C724B1B6893F835301A436F4B1B683B
:103D900093F8344000F10B031A55827A6B4B1B6881
:103DA00093F836301A438272684A126892F83410D7
:103DB0006E4A525C654B1B6893F835309A436B4BE7
:103DC0005A541A46525C42B9604A126892F8363028
:103DD000654A12789A43644B1A7010BD014600225E
:103DE0008A72002005E0002301F10B021354421CEB
:103DF000D0B20828F7D3704705E011F8013B00F86E
:103E0000013B531E9AB2002AF7D1704701460020A9
:103E100002E0491C421CD0B20A78002AF9D170474E
:103E20002DE9F84F05460F4690469946DDE90AAB65
:103E30000020009001F056FC00904E480468002CD1
:103E400075D0183454F8040C4A490860009801F001
:103E50004DFC44F8187CA5760020207660766061E1
:103E600044F814BC44F80CAC44F8108C0C9824F8BA
:103E7000080C24F8069C0020E077E810207705F075
:103E80000700E076217F01208840A077E17E0120B5
:103E90008840607700206060E060A0602062A062DF
:103EA0006062E0622063AFF278306063183C002605
:103EB00006E0002104F1500040F82610701CC6B244
:103EC000002EF6D0204601F04DFD204601F070FC9A
:103ED00001F008FC00901B4840F82540214800688C
:103EE00060610020A0611F48006810B11D48006893
:103EF00084611C4804603434A0781B490978084365
:103F00001949087020781949085C6178084314F849
:103F10003419164A505418480078401C1649087045
:103F2000009801F0E3FB0020BDE8F88FFFE7009860
:103F300001F0DCFB4220F7E7BE000020B4000020C7
:103F4000B3000020FC1F0020CC000020C400002093
:103F5000C0000020A8000020B0000020DC000020ED
:103F6000D4000020D0000020B5000020B6000020C2
:103F700062730008C8000020BF0000202DE9F05F38
:103F800004460F4691461E464FF0000B2078052848
:103F900004D0012030700020BDE8F09F09F0800AB5
:103FA000BAF1000F04D029F080094FF0010801E0B8
:103FB0004FF000080020307001F094FB8346B9F107
:103FC000000F2CD0B9F1010F3BD0B9F1020F03D093
:103FD000B9F1030F46D111E0208900EA0705BD427F
:103FE00006D1B8F1010F05D12089A843208101E055
:103FF00070203070584601F079FB3AE0208900EAE1
:10400000070535B1B8F1010F05D12089A8432081FA
:1040100001E070203070584601F068FB29E02089EB
:1040200027EA0005BD4206D1B8F1010F05D120896C
:104030002843208101E070203070584601F056FB83
:1040400017E0208927EA000535B1B8F1010F05D145
:1040500020892843208101E070203070584601F00B
:1040600045FB06E0584601F041FB00256F2030700B
:1040700000BF00BF28468FE72DE9F04106460D46F8
:104080000027FA48007820B1102028700020BDE8F1
:10409000F08101F027FB0746F548046884B1006809
:1040A0004068F34908600520207026810020606088
:1040B000F0A0E060384601F019FB0020287004E011
:1040C000384601F013FB722028702046DFE730B538
:1040D00001464A6808682AB9CC68606028B10025A2
:1040E000456002E0106000B142608B6800255D62AF
:1040F00030BDF0B506460F46B46800202834606035
:104100002780207A00F0DF00207200206072207A81
:10411000283C88B93434A078D74909780843D6496F
:1041200008702078D549085C6178084314F8341980
:10413000D24A5054012500E000253046FFF7C7FF62
:104140002846F0BD2DE9F0470446894615464FF054
:10415000000AC648007820B10F2028702046BDE82C
:10416000F0872078052803D0012028702046F6E744
:1041700001F0B8FA8246606808B1012700E0002724
:10418000B9F1000F03D0B9F1010F3CD119E08FB99B
:10419000B8A0E06000202070B54800686060002092
:1041A0002081B3480460504601F0A0FA0020287036
:1041B000002605E0504601F099FA4920287026466D
:1041C00028E0D4F8048005E000214046FFF791FF85
:1041D000D8F80080B8F1000FF6D1A6A0E06000206A
:1041E0002070A3480068606000202081A04804601F
:1041F000504601F07BFA012F01D1FFF722FC00208D
:104200002870002606E0504601F070FA072028705A
:10421000264600BF00BF3046A1E72DE9F041054624
:104220000E46144600279148007820B111202070D6
:104230000020BDE8F08101F055FA074628780528EE
:1042400006D0384601F052FA012020700020F0E735
:10425000E86830603068FFF7D9FD8046384601F0E5
:1042600045FA002020704046E3E72DE9F04105467D
:104270000E46144600277D48007818B112202070A1
:10428000BDE8F08101F02EFA07462878052805D010
:10429000384601F02BFA01202070F1E7EE60384635
:1042A00001F024FA0020207000BFE9E7F0B51446C1
:1042B000059E734F3F6897F8307047F02007DFF88E
:1042C000C0C1DCF800C08CF830700027DFF8B0C146
:1042D000DCF800C08CF83170694F3F68FE62684FAF
:1042E0003F6879620C828B74654F3F688F604768C6
:1042F0000F6000274F60C860456805B16960416084
:104300005F4F3F6897F834205C4FBF5CDFF870C1A7
:10431000DCF800C09CF835C027EA0C07DFF85CC168
:104320000CF802706746BF5C5FB9554F3F6897F85D
:1043300036C0514F3F7827EA0C07DFF83CC18CF8B4
:104340000070F0BD2DE9F04F89B005460F4691464B
:104350009A46129E002002904448007828B102201C
:104360003070002009B0BDE8F08F4648007818B1E1
:104370000D2030700020F5E72878052803D00120B3
:1043800030700020EEE709F0800BBBF1000F04D085
:1043900009F07F094FF0010801E04FF0000801F03B
:1043A000A1F90290B9F1000F4AD0B9F1010F78D00C
:1043B000B9F1020F03D0B9F1030F71D120E02889C0
:1043C00000EA0704BC420FD1B8F1010F02D12889DD
:1043D000A04328812A4800680485029801F086F9E4
:1043E000002030702046BDE74B463A4604A92846D7
:1043F000CDF800A0FFF75AFF029801F077F978E0B6
:10440000288900EA07047CB1B8F1010F02D128899C
:10441000A04328811A4800680485029801F066F9D3
:104420000020307020469DE74B463A4604A92846B6
:10443000CDF800A0FFF73AFF029801F057F958E0D5
:10444000288927EA0004BC421ED1B8F1010F02D12D
:104450002889204328810A4800680485029801F0D1
:1044600045F90020307020467CE71AE0B1000020BA
:10447000A00000203F000000B5000020B600002092
:10448000C4000020B20000204B463A4604A928464A
:10449000CDF800A0FFF70AFF029801F027F928E005
:1044A0001FE0288927EA00047CB1B8F1010F02D18E
:1044B000288920432881B14800680485029801F0CA
:1044C00015F90020307020464CE74B463A4604A9C7
:1044D0002846CDF800A0FFF7E9FE029801F006F9A2
:1044E00007E0029801F002F900246F2030702046A6
:1044F00038E700BFFFF7A5FA01F0F4F802909F48F3
:10450000006890F8310020B39C48006890F83100B2
:10451000039000209949096881F8310004A8FFF749
:10452000D6FD00209549096881F83000029801F015
:10453000DDF800240398012805D0022802D10E20BE
:10454000307003E000BF0A20307000BF00BF20467B
:1045500008E78A480068048DB8F1010F1ED1B9F14F
:10456000000F0ED0B9F1010F0CD0B9F1020F03D03A
:10457000B9F1030F0AD100E000BF2889A0432881C8
:104580000BE000BF28892043288106E0029801F053
:10459000ADF86F2030700020E4E600BF029801F013
:1045A000A5F8002030702046DCE670B5002501F04B
:1045B00099F8054671480068048D284601F096F880
:1045C000204670BD2DE9FC5F0446894692461E4692
:1045D000002000902078052804D0012030700020B1
:1045E000BDE8FC9F01F07EF80090BAF1000F03D007
:1045F000BAF1010F0AD104E0208920EA09002081E4
:104600000BE0208940EA0900208106E0009801F0D3
:104610006DF8712030700020E2E700BF4FF0000B12
:10462000656855E0A87C40B3012838D0022802D044
:10463000032844D111E02089298A00EA0107288A49
:10464000B84209D139462846FFF753FD8046B8F1F4
:10465000010F01D14FF0010B38E02089298A00EACF
:1046600001074FB139462846FFF743FD8046B8F1B0
:10467000010F01D14FF0010B28E0288A218920EA9F
:104680000107288AB84209D139462846FFF731FD8B
:104690008046B8F1010F01D14FF0010B16E0288AD6
:1046A000218920EA01074FB139462846FFF721FD4D
:1046B0008046B8F1010F01D14FF0010B06E00098E0
:1046C00001F014F86F203070002089E700BF2D68DA
:1046D000002DA7D1009801F009F8BBF1010F01D11D
:1046E000FFF7AFF900F0FEFF0090208901900098DD
:1046F00000F0FCFF00203070019871E72DE9F041D7
:1047000004460D4600272078052804D00120287093
:104710000020BDE8F08100F0E5FF07462689384615
:1047200000F0E4FF002028703046F2E72DE9F04168
:1047300050211348FFF774F800250EE0681C86B27C
:104740000F4800EB051400EB06170020207067608F
:10475000AFF2E020E060681C85B2042DEED308487B
:1047600000EB0514002020706060AFF2F820E060DC
:10477000034804490860BDE8F0810000C40000203F
:10478000AC1B0020A00000202DE9F04106460D469C
:104790004FF000083078022804D001202870002053
:1047A000BDE8F08100F09EFF80467468E08A78B131
:1047B0002169081D20610F68E08A401EE082A1681F
:1047C0002069884201D1606820610020287002E0E1
:1047D0001F2028700027404600F088FF3846DFE79A
:1047E0002DE9F04106460F464FF00008F7480078E3
:1047F00010B10020BDE8F08100F074FF8046F4485D
:104800000568006820B1F24800684068F049086017
:10481000404600F06BFF3DB300F064FF8046ED487A
:104820000468C4B100680068EA490860404600F0C6
:104830005DFF666006EB8700A060E6602661A782E8
:104840000020E08202202870002028816C60284629
:10485000FFF7C4FA08E0DE4800686860DC480560DD
:10486000404600F043FF00252846C3E72DE9F04706
:104870000446894615464FF0000A2078022804D0E5
:10488000012028702046BDE8F087D048007818B194
:104890000F2028702046F6E700F024FF8246A07A19
:1048A00010B14FF0010801E04FF00008B9F1000F1E
:1048B00003D0B9F1010F45D11FE0B8F1000F15D1B8
:1048C0006668C44800683060C248066000202070F6
:1048D000BF480068606000202081BD4804605046E9
:1048E00000F004FF00202870002705E0504600F08B
:1048F000FDFE4920287027462BE005E00023042216
:1049000019462046FFF7F9F9A07A0028F6D1666823
:10491000B04800683060AF48066000202070AC48A6
:104920000068606000202081A9480460504600F0C3
:10493000DDFEB8F1010F01D1FFF783F800202870E8
:10494000002706E0504600F0D1FE072028702746D9
:1049500000BF00BF384696E770B50546002600F058
:10496000C1FE06466C686068E060606820610020F7
:10497000E082304600F0BAFE002070BD2DE9F0471D
:104980000746884615464FF000093878022804D0BB
:10499000012028700020BDE8F0878C48007818B10D
:1049A000022028700020F6E78B48007818B10D200F
:1049B00028700020EFE700F095FE81467C68E08AD1
:1049C00098B12169081D20610E68E08A401EE082CE
:1049D000A1682069884201D160682061484600F0E2
:1049E00085FE002028703046D5E77C48006890F8A6
:1049F000300040F004007949096881F83000002057
:104A00007649096881F8310074480068C0F82C8044
:104A10003846FFF7ABF9484600F068FEFFF711F89B
:104A200000F060FE81466D48006890F8310020B1CA
:104A300001280DD002280AD105E068480068066AFE
:104A4000002028700DE000260E20287009E000BF2D
:104A5000394662480068FFF73BF900260A202870B3
:104A600000BF00BF00205D49096881F830005B4944
:104A7000096881F8310059490968C86157490968CE
:104A80000862484600F032FE304684E72DE9F041E6
:104A900004460F4615464FF000082078022804D03F
:104AA000012028700020BDE8F08100F01BFE804648
:104AB000A07A20B300267FB1012F0CD107E002239A
:104AC000042200212046FFF718F9701CC6B2A07A14
:104AD0000028F4D109E000BF02230422002120466F
:104AE000FFF70BF9701CC6B200BF00BF404600F0D4
:104AF000FDFDFEF7A6FF0E2028703046D3E74046A6
:104B000000F0F4FD0020287000BFCCE72DE9F04153
:104B100005460E4600272878022802D00120BDE86D
:104B2000F08100F0DFFD0746A87A60B1002304227F
:104B300031462846FFF7E1F8384600F0D7FDFEF78A
:104B400080FF0020EBE76C68E08AA18A884204DBE2
:104B5000384600F0CBFD1E20E1E7E168081DE0606B
:104B60000E60E08A401CE082D4E90210884201D144
:104B70006068E060384600F0B9FD0020CFE72DE91D
:104B8000F04105460E4600272878022802D0012071
:104B9000BDE8F08100F0A6FD0746A87A60B10023C9
:104BA000042231462846FFF7A8F8384600F09EFD5B
:104BB000FEF747FF0020EBE76C68E08AA18A884295
:104BC0000EDB384600F092FD1E20E1E7B100002028
:104BD0009C000020D8000020B2000020C40000206B
:104BE00061682069884201D1A06820612069001FA6
:104BF000206120690660E08A401CE082384600F0AF
:104C000075FD0020C4E72DE9F04105460F46164624
:104C10004FF000082878022802D00120BDE8F0817A
:104C200000F060FD8046A87AE8B106F0010050B1BE
:104C300005E00023042239462846FFF75EF8A87AEB
:104C40000028F6D105E00023042239462846FFF764
:104C500054F8404600F04AFD06F0040008B9FEF79B
:104C6000F0FE0020DAE76C68E08AA18A884204DB63
:104C7000404600F03BFD1E20D0E706F0020058B190
:104C800061682069884201D1A06820612069001F05
:104C900020612069076009E0E168081DE0600F609D
:104CA000D4E90210884201D16068E060E08A401CCB
:104CB000E082404600F01AFD0020AFE72DE9F04702
:104CC00005460C464FF0000A2878022802D0012041
:104CD000BDE8F08700F006FD8246A87A207405F151
:104CE0000B0804F10809002705E018F8010B09F882
:104CF000010B781CC7B2082FF7D36E68F08A18B181
:104D000030690068206001E000202060F08AA08007
:104D1000B08AE080504600F0E9FC0020D8E72DE999
:104D2000F04178211048FEF77BFD00240DE0601C67
:104D300086B204EB44000C4901EBC00506EB4600CB
:104D400001EBC0072F60601C84B2042CEFD304EB8E
:104D50004400054901EBC0050020286008460349CE
:104D60000860BDE8F0810000EC240020D80000209D
:104D70002DE9FF5F814688460020009000F0B2FCDC
:104D80000090F94850F8280030B1009800F0AEFCCF
:104D9000282004B0BDE8F09FB9F1FF0F03D1F3481C
:104DA000006890F83290F04850F8294024B90098F3
:104DB00000F09CFC2920ECE7012C04D1009800F0C5
:104DC00095FC4320E5E74FEAE80708F00700039069
:104DD0000120B84000F0FF0A01210398814001F052
:104DE000FF0B0020E04941F82900084640F8284020
:104DF00014F8346FA07802906078343C0190DC485D
:104E0000815D01980140D1B1D948805D0199884305
:104E1000D74988550846805D28B9D6480078029958
:104E20008843D4490870D348007840EA0A00D14941
:104E30000870CF48C05D40EA0B00CD49C855E56910
:104E4000D5B105F10B00805D0199884305F10B0197
:104E500088550846805D18B9A87A02998843A872D7
:104E6000A87A40EA0A00A87205F10B00C05D40EA8A
:104E70000B0005F10B01C85584F8328084F83470BA
:104E8000039884F8330084F836A084F835B000988D
:104E900000F02CFCB8480078012801D1FEF7D1FDC4
:104EA000002076E72DE9FE4F06460F4690461C4649
:104EB0004FF0000900F016FC8146B048007828B198
:104EC000484600F013FC3C20BDE8FE8FA64850F891
:104ED000240060BB0120A44941F82400484600F0AA
:104EE00005FC002342463946304600F065FC824608
:104EF0000020009001900346024651460290204651
:104F0000FEF78EFF054635B99B48007801280CD185
:104F1000FEF797FD09E000F0E5FB8146002092498D
:104F200041F82400484600F0E1FB2846CCE748461B
:104F300000F0DCFB2820C7E702F0010343B102F0D8
:104F400002032BB102E0491E002308C00029FAD158
:104F500070472DE9F04F85B081468A4693461C463E
:104F6000DDE90F78129D0020039000F0BBFB039059
:104F70008248007830B1039800F0B8FB3C2005B0BF
:104F8000BDE8F08F784850F8240088BB01207649AE
:104F900041F82400039800F0A9FB2A464146384610
:104FA000FFF7CAFF2B465A465146484600F004FC1C
:104FB00004901198CDE9008002953A4620460E9B58
:104FC0000499FEF72DFF064636B96B480078012894
:104FD0000CD1FEF736FD09E000F084FB03900020C1
:104FE000614941F82400039800F080FB3046C6E791
:104FF000FFE7039800F07AFB2820C0E72DE9F04195
:10500000054600275D48007810B14020BDE8F081DA
:105010003F2D01D13E20F9E700F064FB0746FF2D4C
:1050200003D15248006890F832504F4850F825405C
:1050300024B9384600F05AFB4320E7E7012C04D19D
:10504000384600F053FB3D20E0E714F8340F4849A0
:10505000085C617888432178454A505414F8340933
:105060001146085C30B994F83610424800788843FD
:1050700040490870E06918B12046E169FEF728FE52
:10508000666A16B13046FFF722F80020E06284F825
:10509000300084F831003A480078FF2804D23848BC
:1050A0000078401C36490870384600F01FFBFEF7B8
:1050B0000EFE00F017FB07463148007820B130485B
:1050C0000078401E2E490870204600F072FB2D48E3
:1050D0000078401E2B4908700020234941F8250024
:1050E000A06930B90020616988612749606908605A
:1050F00005E0D4E905014861D4E905108861234839
:10510000006860612148046021A0E064384600F036
:10511000EDFA19480078012801D1FEF792FC002031
:1051200074E72DE9F041044600273F2C02D13E20D0
:10513000BDE8F081FF2C0BD100F0D4FA07460B48F4
:10514000006890F83760384600F0D0FA3046EFE754
:1051500000F0C8FA0746044850F82450D5B938463C
:1051600000F0C4FA4320E3E7FC1F0020C400002045
:10517000B6000020B5000020BE000020B1000020D5
:10518000B2000020BF000020D0000020C800002096
:105190003F000000012D04D1384600F0A7FA3D2061
:1051A000C6E73F2085F83700384600F09FFA002018
:1051B000BEE72DE9F04706460F4614464FF00008BB
:1051C000D648007820B1112020700020BDE8F0877B
:1051D00000F088FA8046FF2E03D1D148006890F88D
:1051E0003260D04850F8265035B9404600F07EFA7B
:1051F000432020700020E9E7012D06D1404600F051
:1052000075FA432020700020E0E7E86C38603868C9
:10521000FEF7FCFD8146404600F068FA0020207051
:105220004846D3E72DE9F04106460F4614464FF0B5
:105230000008BA48007818B112202070BDE8F0814B
:1052400000F050FA8046FF2E03D1B548006890F870
:105250003260B44850F826502DB9404600F046FA66
:1052600043202070EAE7012D05D1404600F03EFAC8
:1052700043202070E2E7EF64404600F037FA002058
:10528000207000BFDAE770B50546002600F02AFA64
:105290000646A44850F8254024B9304600F026FAC6
:1052A000462070BD012C04D1304600F01FFA432087
:1052B000F7E794F8300000F0080060B314F8300FFE
:1052C00000F0F700207014F83009F8B9E06AC8B9A6
:1052D0003434A078944909780843934908702078B9
:1052E0009249085C6178084314F834198F4A505485
:1052F000304600F0FBF98E480078012809D1FEF70E
:10530000A0FB06E0304600F0F1F902E0304600F084
:10531000EDF90020C5E7304600F0E8F94420C0E789
:105320002DE9F04707460D464FF0000A002028609F
:10533000686000F0D7F98246FF2F03D178480068F3
:1053400090F83270774850F827402CB9504600F05A
:10535000CDF94320BDE8F087012C04D1504600F080
:10536000C5F94320F6E7207C00F0010020B9504643
:1053700000F0BCF94520EDE70026D4F80C90D4F8F5
:105380000880504600F0B2F900E0761C58F8041B83
:105390000029FAD0B0002860A9EB06008000686000
:1053A0000020D7E72DE9F04105464FF0000800F056
:1053B00099F98046FF2D05D15948006890F8325080
:1053C000012608E05648006890F83200A84201D152
:1053D000012600E00026534850F825402CB94046ED
:1053E00000F084F94820BDE8F081012C04D140464A
:1053F00000F07CF94320F6E794F834704B48C05D28
:1054000094F8351088434949C8550846C05D30B9FD
:1054100094F836104448007888434349087094F85B
:10542000300040F0080084F83000404600F05EF99B
:10543000012E01D1FEF705FB0020D4E72DE9F04154
:1054400005460E46002700F04DF90746FF2D03D113
:105450003348006890F83250324850F825402CB953
:10546000384600F043F92920BDE8F081012C04D131
:10547000384600F03BF94320F6E7542221463046F7
:10548000FEF7BAFC384600F031F90020ECE72DE9D0
:10549000F04704460E4617464FF0000900F022F987
:1054A0008146FF2C02D11E48056802E01D4850F8D5
:1054B000245005F1500050F82680484600F016F9B7
:1054C000002038704046BDE8F0872DE9F0470446DB
:1054D0000E46174698464FF0000900F003F9814642
:1054E000FF2C02D10E48056802E00E4850F8245007
:1054F00005F1500040F82670484600F0F7F800200B
:1055000088F80000BDE8F08710B50548006800F095
:105510002BFAFF20FFF772FD10BD0000B100002044
:10552000C4000020FC1F0020B5000020B6000020B1
:10553000BE00002070B5054600266348007800B123
:1055400070BD6248007800B1FAE71DB300F0CAF8F8
:1055500006465F48006890F834405E48005D5C494C
:10556000096891F8351088435A4908550846005D86
:1055700040B95748006890F836105748007888437B
:105580005549087052480068C562304600F0AEF8D0
:10559000FEF757FA00BFD3E72DE9F04104460D4668
:1055A00016461F464848007810B15520BDE8F081E6
:1055B0004648007808B13220F8E7B81CC8214843B3
:1055C0004FF47A71B0FBF1F14FF461606043C5EBC9
:1055D000051200EB8200304400EBC00202EB001029
:1055E00001EBC0084046FFF7A5FF0020DEE770B5DD
:1055F000054600263F2D01D32A2070BD00F072F829
:105600000646364850F8254024B9304600F06EF87A
:105610004320F2E7012C04D1304600F067F8432024
:10562000EBE7E06A20B9304600F060F85020E4E78C
:105630000020E06294F8300000F0370040B114F828
:10564000300F20F03700207001206070303C02E005
:10565000002084F8310094F8300000F00800A8B968
:105660003434A0781C49097808431B490870207815
:105670001849085C6178084314F83419154A5054E5
:10568000304600F033F8FEF7DCF902E0304600F077
:105690002DF80020B1E770B5002500F023F805468D
:1056A0000F480468284600F021F8204670BD70B508
:1056B0000446002500F016F805460948046028460F
:1056C00000F014F870BD0000B1000020B20000200E
:1056D000C4000020B6000020B5000020FC1F002000
:1056E000DC000020EFF3108072B6704780F3108862
:1056F0007047264C4FF6FF7525604FF0000484F389
:105700000988234C4FF001052570224C4FF080553D
:10571000256062B6FEE730B41E4C4FF08055256020
:1057200030BC704730B41B4C4FF08055256030BC06
:10573000704700BF72B6EFF3098050B11EF0100F32
:1057400008BF20ED108A203880E8F00F1249096860
:10575000086000B5114880475DF804EB1048114916
:105760000A7802700C4810490A680260106890E8D4
:10577000F00F20301EF0100F08BFB0EC108A80F33D
:1057800009884EF0040E62B6704700BF22ED00E0BB
:10579000BE00002004ED00E0C400002063590008B2
:1057A000B3000020B4000020CC00002070477047F8
:1057B000704770477047704770B504461046002622
:1057C000051F28462E604FF48056051F28462E6080
:1057D0001526051F28462E601426051F28462E6014
:1057E0001326051F28462E601226051F28462E6008
:1057F0001126051F28462E601026051F28462E60FC
:105800000926051F28462E600826051F28462E60FB
:105810000726051F28462E600626051F28462E60EF
:105820000526051F28462E600426051F28462E60E3
:105830000326051F28462E600226051F28462E60D7
:105840000126051F28462E600026051F28462E60CB
:105850004FF080750560051F28462C60434E051FDC
:1058600028462E604FF01236051F28462E604FF056
:105870000336051F28462E604FF00236051F2846C6
:105880002E607610051F28462E60051F28462960C9
:105890003126051F28462E603026051F28462E601B
:1058A0002926051F28462E602826051F28462E601B
:1058B0002726051F28462E602626051F28462E600F
:1058C0002526051F28462E602426051F28462E6003
:1058D0002326051F28462E602226051F28462E60F7
:1058E0002126051F28462E602026051F28462E60EB
:1058F0001926051F28462E601826051F28462E60EB
:105900001726051F28462E601626051F28462E60DE
:105910004FF01136051F28462E604FF01036051F38
:1059200028462E604FF00936051F28462E604FF09E
:105930000836051F28462E604FF00736051F2846FB
:105940002E604FF00636051F28462E604FF00536B4
:10595000051F28462E604FF00436051F28462E608E
:1059600070BD7047704770477047000009550008C8
:10597000704770B5064600F02FF8056806F10B0079
:1059800020F00704B4429CBF002070BD2B466A681B
:10599000BAB11068A04210D304F1080188423CBF9C
:1059A0005068586007D35168101941601168091B8D
:1059B000016058601460101D70BD13465268002AC3
:1059C000E7D12146284600F00FF80028DED170BD4F
:1059D0007047704770477047004870476C2500203B
:1059E000704770477047704738B504460A46002034
:1059F0006946AFF30080002808BF38BD0246009911
:105A0000204600F075F8012038BD012000F08AB86A
:105A1000F8B5AFF30080054600200C46102000BF0B
:105A20000646A819A0420DD9324669460020AFF3B8
:105A30000080070008BF00F075F80098A04218BF6A
:105A40000546C419FFF7C8FF05600746F01D20F0A2
:105A500007004619284600F00AF8B44208BFF8BD0E
:105A6000A21B31463868BDE8F84000F041B800217B
:105A70000160C0E9011070471020704770B50446FE
:105A8000051FFFF7A9FF0068002C14BF446870BD14
:105A9000002C18BFAC423CBF20466468F8D30168B4
:105AA0000A18AA4218BF456003D12A680546114466
:105AB000016028684119A1421CBF6C6070BD61681B
:105AC000696021680844286070BD10B500F00CF8CA
:105AD000006810BD10B5044600F006F8046010BD63
